{
  "contractName": "CampaignRegistration",
  "abi": [
    {
      "anonymous": false,
      "inputs": [
        {
          "indexed": true,
          "internalType": "uint256",
          "name": "campaignId",
          "type": "uint256"
        },
        {
          "indexed": false,
          "internalType": "string",
          "name": "title",
          "type": "string"
        },
        {
          "indexed": true,
          "internalType": "address",
          "name": "beneficiary",
          "type": "address"
        }
      ],
      "name": "CampaignClosed",
      "type": "event"
    },
    {
      "anonymous": false,
      "inputs": [
        {
          "indexed": true,
          "internalType": "uint256",
          "name": "campaignId",
          "type": "uint256"
        },
        {
          "indexed": false,
          "internalType": "string",
          "name": "title",
          "type": "string"
        },
        {
          "indexed": true,
          "internalType": "address",
          "name": "beneficiary",
          "type": "address"
        }
      ],
      "name": "CampaignCreated",
      "type": "event"
    },
    {
      "anonymous": false,
      "inputs": [
        {
          "indexed": true,
          "internalType": "address",
          "name": "userAddress",
          "type": "address"
        },
        {
          "indexed": true,
          "internalType": "uint256",
          "name": "userId",
          "type": "uint256"
        }
      ],
      "name": "UserRegistered",
      "type": "event"
    },
    {
      "inputs": [],
      "name": "campaignIdCounter",
      "outputs": [
        {
          "internalType": "uint256",
          "name": "",
          "type": "uint256"
        }
      ],
      "stateMutability": "view",
      "type": "function",
      "constant": true
    },
    {
      "inputs": [
        {
          "internalType": "uint256",
          "name": "",
          "type": "uint256"
        }
      ],
      "name": "campaigns",
      "outputs": [
        {
          "internalType": "uint256",
          "name": "id",
          "type": "uint256"
        },
        {
          "internalType": "string",
          "name": "title",
          "type": "string"
        },
        {
          "internalType": "string",
          "name": "description",
          "type": "string"
        },
        {
          "internalType": "string",
          "name": "goal",
          "type": "string"
        },
        {
          "internalType": "string",
          "name": "financial_needs",
          "type": "string"
        },
        {
          "internalType": "string",
          "name": "contribution",
          "type": "string"
        },
        {
          "internalType": "uint256",
          "name": "target_donation",
          "type": "uint256"
        },
        {
          "internalType": "uint256",
          "name": "raised_amount",
          "type": "uint256"
        },
        {
          "internalType": "uint256",
          "name": "start_date",
          "type": "uint256"
        },
        {
          "internalType": "uint256",
          "name": "end_date",
          "type": "uint256"
        },
        {
          "internalType": "bool",
          "name": "isActive",
          "type": "bool"
        },
        {
          "components": [
            {
              "internalType": "uint256",
              "name": "id",
              "type": "uint256"
            },
            {
              "internalType": "string",
              "name": "name",
              "type": "string"
            },
            {
              "internalType": "string",
              "name": "email",
              "type": "string"
            },
            {
              "internalType": "address",
              "name": "user_address",
              "type": "address"
            }
          ],
          "internalType": "struct UserRegistration.User",
          "name": "owner",
          "type": "tuple"
        }
      ],
      "stateMutability": "view",
      "type": "function",
      "constant": true
    },
    {
      "inputs": [],
      "name": "getUserAddress",
      "outputs": [
        {
          "internalType": "address",
          "name": "",
          "type": "address"
        }
      ],
      "stateMutability": "view",
      "type": "function",
      "constant": true
    },
    {
      "inputs": [],
      "name": "isRegistered",
      "outputs": [
        {
          "internalType": "bool",
          "name": "",
          "type": "bool"
        }
      ],
      "stateMutability": "view",
      "type": "function",
      "constant": true
    },
    {
      "inputs": [
        {
          "internalType": "string",
          "name": "_name",
          "type": "string"
        },
        {
          "internalType": "string",
          "name": "_email",
          "type": "string"
        }
      ],
      "name": "registerUser",
      "outputs": [],
      "stateMutability": "nonpayable",
      "type": "function"
    },
    {
      "inputs": [],
      "name": "userIdCounter",
      "outputs": [
        {
          "internalType": "uint256",
          "name": "",
          "type": "uint256"
        }
      ],
      "stateMutability": "view",
      "type": "function",
      "constant": true
    },
    {
      "inputs": [
        {
          "internalType": "address",
          "name": "",
          "type": "address"
        }
      ],
      "name": "users",
      "outputs": [
        {
          "internalType": "uint256",
          "name": "id",
          "type": "uint256"
        },
        {
          "internalType": "string",
          "name": "name",
          "type": "string"
        },
        {
          "internalType": "string",
          "name": "email",
          "type": "string"
        },
        {
          "internalType": "address",
          "name": "user_address",
          "type": "address"
        }
      ],
      "stateMutability": "view",
      "type": "function",
      "constant": true
    },
    {
      "inputs": [
        {
          "internalType": "string",
          "name": "_title",
          "type": "string"
        },
        {
          "internalType": "string",
          "name": "_description",
          "type": "string"
        },
        {
          "internalType": "string",
          "name": "_goal",
          "type": "string"
        },
        {
          "internalType": "string",
          "name": "_financial_needs",
          "type": "string"
        },
        {
          "internalType": "string",
          "name": "_contribution",
          "type": "string"
        },
        {
          "internalType": "uint256",
          "name": "_targetDonation",
          "type": "uint256"
        },
        {
          "internalType": "uint256",
          "name": "_start_date",
          "type": "uint256"
        },
        {
          "internalType": "uint256",
          "name": "_end_date",
          "type": "uint256"
        }
      ],
      "name": "createCampaign",
      "outputs": [],
      "stateMutability": "nonpayable",
      "type": "function"
    },
    {
      "inputs": [],
      "name": "getAllCampaigns",
      "outputs": [
        {
          "components": [
            {
              "internalType": "uint256",
              "name": "id",
              "type": "uint256"
            },
            {
              "internalType": "string",
              "name": "title",
              "type": "string"
            },
            {
              "internalType": "string",
              "name": "description",
              "type": "string"
            },
            {
              "internalType": "string",
              "name": "goal",
              "type": "string"
            },
            {
              "internalType": "string",
              "name": "financial_needs",
              "type": "string"
            },
            {
              "internalType": "string",
              "name": "contribution",
              "type": "string"
            },
            {
              "internalType": "uint256",
              "name": "target_donation",
              "type": "uint256"
            },
            {
              "internalType": "uint256",
              "name": "raised_amount",
              "type": "uint256"
            },
            {
              "internalType": "uint256",
              "name": "start_date",
              "type": "uint256"
            },
            {
              "internalType": "uint256",
              "name": "end_date",
              "type": "uint256"
            },
            {
              "internalType": "bool",
              "name": "isActive",
              "type": "bool"
            },
            {
              "components": [
                {
                  "internalType": "uint256",
                  "name": "id",
                  "type": "uint256"
                },
                {
                  "internalType": "string",
                  "name": "name",
                  "type": "string"
                },
                {
                  "internalType": "string",
                  "name": "email",
                  "type": "string"
                },
                {
                  "internalType": "address",
                  "name": "user_address",
                  "type": "address"
                }
              ],
              "internalType": "struct UserRegistration.User",
              "name": "owner",
              "type": "tuple"
            }
          ],
          "internalType": "struct CampaignRegistration.Campaign[]",
          "name": "",
          "type": "tuple[]"
        }
      ],
      "stateMutability": "view",
      "type": "function",
      "constant": true
    }
  ],
  "bytecode": "0x608060405234801561001057600080fd5b50612adb806100206000396000f3fe608060405234801561001057600080fd5b50600436106100935760003560e01c80632faba6ae116100665780632faba6ae1461012b5780635e3de4ca1461014957806386cdf60414610165578063a87430ba14610183578063ebc3eee8146101b657610093565b8063141961bc146100985780631d2e4afd146100d357806322366844146100ef5780632e6186761461010d575b600080fd5b6100b260048036038101906100ad919061180f565b6101d4565b6040516100ca9c9b9a999897969594939291906119fa565b60405180910390f35b6100ed60048036038101906100e89190611c13565b610677565b005b6100f761094b565b6040516101049190611c8b565b60405180910390f35b610115610997565b6040516101229190611ca6565b60405180910390f35b61013361099d565b6040516101409190611ca6565b60405180910390f35b610163600480360381019061015e9190611cc1565b6109a3565b005b61016d611001565b60405161017a9190612065565b60405180910390f35b61019d600480360381019061019891906120b3565b6115b6565b6040516101ad94939291906120ef565b60405180910390f35b6101be611716565b6040516101cb9190612142565b60405180910390f35b60026020528060005260406000206000915090508060000154908060010180546101fd9061218c565b80601f01602080910402602001604051908101604052809291908181526020018280546102299061218c565b80156102765780601f1061024b57610100808354040283529160200191610276565b820191906000526020600020905b81548152906001019060200180831161025957829003601f168201915b50505050509080600201805461028b9061218c565b80601f01602080910402602001604051908101604052809291908181526020018280546102b79061218c565b80156103045780601f106102d957610100808354040283529160200191610304565b820191906000526020600020905b8154815290600101906020018083116102e757829003601f168201915b5050505050908060030180546103199061218c565b80601f01602080910402602001604051908101604052809291908181526020018280546103459061218c565b80156103925780601f1061036757610100808354040283529160200191610392565b820191906000526020600020905b81548152906001019060200180831161037557829003601f168201915b5050505050908060040180546103a79061218c565b80601f01602080910402602001604051908101604052809291908181526020018280546103d39061218c565b80156104205780601f106103f557610100808354040283529160200191610420565b820191906000526020600020905b81548152906001019060200180831161040357829003601f168201915b5050505050908060050180546104359061218c565b80601f01602080910402602001604051908101604052809291908181526020018280546104619061218c565b80156104ae5780601f10610483576101008083540402835291602001916104ae565b820191906000526020600020905b81548152906001019060200180831161049157829003601f168201915b50505050509080600601549080600701549080600801549080600901549080600a0160009054906101000a900460ff169080600b01604051806080016040529081600082015481526020016001820180546105089061218c565b80601f01602080910402602001604051908101604052809291908181526020018280546105349061218c565b80156105815780601f1061055657610100808354040283529160200191610581565b820191906000526020600020905b81548152906001019060200180831161056457829003601f168201915b5050505050815260200160028201805461059a9061218c565b80601f01602080910402602001604051908101604052809291908181526020018280546105c69061218c565b80156106135780601f106105e857610100808354040283529160200191610613565b820191906000526020600020905b8154815290600101906020018083116105f657829003601f168201915b505050505081526020016003820160009054906101000a900473ffffffffffffffffffffffffffffffffffffffff1673ffffffffffffffffffffffffffffffffffffffff1673ffffffffffffffffffffffffffffffffffffffff168152505090508c565b600073ffffffffffffffffffffffffffffffffffffffff163373ffffffffffffffffffffffffffffffffffffffff16036106e6576040517f08c379a00000000000000000000000000000000000000000000000000000000081526004016106dd90612209565b60405180910390fd5b60008060003373ffffffffffffffffffffffffffffffffffffffff1673ffffffffffffffffffffffffffffffffffffffff168152602001908152602001600020600001541461076a576040517f08c379a000000000000000000000000000000000000000000000000000000000815260040161076190612275565b60405180910390fd5b60008251116107ae576040517f08c379a00000000000000000000000000000000000000000000000000000000081526004016107a5906122e1565b60405180910390fd5b60008151116107f2576040517f08c379a00000000000000000000000000000000000000000000000000000000081526004016107e99061234d565b60405180910390fd5b600160008154809291906108059061239c565b9190505550604051806080016040528060015481526020018381526020018281526020013373ffffffffffffffffffffffffffffffffffffffff168152506000803373ffffffffffffffffffffffffffffffffffffffff1673ffffffffffffffffffffffffffffffffffffffff1681526020019081526020016000206000820151816000015560208201518160010190816108a09190612590565b5060408201518160020190816108b69190612590565b5060608201518160030160006101000a81548173ffffffffffffffffffffffffffffffffffffffff021916908373ffffffffffffffffffffffffffffffffffffffff1602179055509050506001543373ffffffffffffffffffffffffffffffffffffffff167fe29d35093005f4d575e1003753426b57a7f64378ba73332eef9c6ccc2b8decd660405160405180910390a35050565b6000806000803373ffffffffffffffffffffffffffffffffffffffff1673ffffffffffffffffffffffffffffffffffffffff168152602001908152602001600020600001541415905090565b60035481565b60015481565b6109ab61094b565b6109ea576040517f08c379a00000000000000000000000000000000000000000000000000000000081526004016109e1906126ae565b60405180910390fd5b6000885111610a2e576040517f08c379a0000000000000000000000000000000000000000000000000000000008152600401610a259061271a565b60405180910390fd5b6000875111610a72576040517f08c379a0000000000000000000000000000000000000000000000000000000008152600401610a6990612786565b60405180910390fd5b6000865111610ab6576040517f08c379a0000000000000000000000000000000000000000000000000000000008152600401610aad906127f2565b60405180910390fd5b6000855111610afa576040517f08c379a0000000000000000000000000000000000000000000000000000000008152600401610af190612884565b60405180910390fd5b6000845111610b3e576040517f08c379a0000000000000000000000000000000000000000000000000000000008152600401610b35906128f0565b60405180910390fd5b60008311610b81576040517f08c379a0000000000000000000000000000000000000000000000000000000008152600401610b789061295c565b60405180910390fd5b42821015610bc4576040517f08c379a0000000000000000000000000000000000000000000000000000000008152600401610bbb906129c8565b60405180910390fd5b818111610c06576040517f08c379a0000000000000000000000000000000000000000000000000000000008152600401610bfd90612a34565b60405180910390fd5b60036000815480929190610c199061239c565b91905055506040518061018001604052806003548152602001898152602001888152602001878152602001868152602001858152602001848152602001600081526020018381526020018281526020016001151581526020016000803373ffffffffffffffffffffffffffffffffffffffff1673ffffffffffffffffffffffffffffffffffffffff16815260200190815260200160002060405180608001604052908160008201548152602001600182018054610cd59061218c565b80601f0160208091040260200160405190810160405280929190818152602001828054610d019061218c565b8015610d4e5780601f10610d2357610100808354040283529160200191610d4e565b820191906000526020600020905b815481529060010190602001808311610d3157829003601f168201915b50505050508152602001600282018054610d679061218c565b80601f0160208091040260200160405190810160405280929190818152602001828054610d939061218c565b8015610de05780601f10610db557610100808354040283529160200191610de0565b820191906000526020600020905b815481529060010190602001808311610dc357829003601f168201915b505050505081526020016003820160009054906101000a900473ffffffffffffffffffffffffffffffffffffffff1673ffffffffffffffffffffffffffffffffffffffff1673ffffffffffffffffffffffffffffffffffffffff1681525050815250600260006003548152602001908152602001600020600082015181600001556020820151816001019081610e769190612590565b506040820151816002019081610e8c9190612590565b506060820151816003019081610ea29190612590565b506080820151816004019081610eb89190612590565b5060a0820151816005019081610ece9190612590565b5060c0820151816006015560e082015181600701556101008201518160080155610120820151816009015561014082015181600a0160006101000a81548160ff02191690831515021790555061016082015181600b01600082015181600001556020820151816001019081610f439190612590565b506040820151816002019081610f599190612590565b5060608201518160030160006101000a81548173ffffffffffffffffffffffffffffffffffffffff021916908373ffffffffffffffffffffffffffffffffffffffff16021790555050509050503373ffffffffffffffffffffffffffffffffffffffff166003547f2750eae5c1c1d8000d7e674f15576524a1b7e24f4a33052e9d80ce3889556e398a604051610fef9190612a54565b60405180910390a35050505050505050565b60606000600354905060008167ffffffffffffffff81111561102657611025611ae8565b5b60405190808252806020026020018201604052801561105f57816020015b61104c61171e565b8152602001906001900390816110445790505b509050600080600190505b8381116115ac57600060026000838152602001908152602001600020905080600a0160009054906101000a900460ff1615611598578060405180610180016040529081600082015481526020016001820180546110c69061218c565b80601f01602080910402602001604051908101604052809291908181526020018280546110f29061218c565b801561113f5780601f106111145761010080835404028352916020019161113f565b820191906000526020600020905b81548152906001019060200180831161112257829003601f168201915b505050505081526020016002820180546111589061218c565b80601f01602080910402602001604051908101604052809291908181526020018280546111849061218c565b80156111d15780601f106111a6576101008083540402835291602001916111d1565b820191906000526020600020905b8154815290600101906020018083116111b457829003601f168201915b505050505081526020016003820180546111ea9061218c565b80601f01602080910402602001604051908101604052809291908181526020018280546112169061218c565b80156112635780601f1061123857610100808354040283529160200191611263565b820191906000526020600020905b81548152906001019060200180831161124657829003601f168201915b5050505050815260200160048201805461127c9061218c565b80601f01602080910402602001604051908101604052809291908181526020018280546112a89061218c565b80156112f55780601f106112ca576101008083540402835291602001916112f5565b820191906000526020600020905b8154815290600101906020018083116112d857829003601f168201915b5050505050815260200160058201805461130e9061218c565b80601f016020809104026020016040519081016040528092919081815260200182805461133a9061218c565b80156113875780601f1061135c57610100808354040283529160200191611387565b820191906000526020600020905b81548152906001019060200180831161136a57829003601f168201915b5050505050815260200160068201548152602001600782015481526020016008820154815260200160098201548152602001600a820160009054906101000a900460ff16151515158152602001600b8201604051806080016040529081600082015481526020016001820180546113fd9061218c565b80601f01602080910402602001604051908101604052809291908181526020018280546114299061218c565b80156114765780601f1061144b57610100808354040283529160200191611476565b820191906000526020600020905b81548152906001019060200180831161145957829003601f168201915b5050505050815260200160028201805461148f9061218c565b80601f01602080910402602001604051908101604052809291908181526020018280546114bb9061218c565b80156115085780601f106114dd57610100808354040283529160200191611508565b820191906000526020600020905b8154815290600101906020018083116114eb57829003601f168201915b505050505081526020016003820160009054906101000a900473ffffffffffffffffffffffffffffffffffffffff1673ffffffffffffffffffffffffffffffffffffffff1673ffffffffffffffffffffffffffffffffffffffff16815250508152505084848151811061157e5761157d612a76565b5b602002602001018190525082806115949061239c565b9350505b5080806115a49061239c565b91505061106a565b5081935050505090565b60006020528060005260406000206000915090508060000154908060010180546115df9061218c565b80601f016020809104026020016040519081016040528092919081815260200182805461160b9061218c565b80156116585780601f1061162d57610100808354040283529160200191611658565b820191906000526020600020905b81548152906001019060200180831161163b57829003601f168201915b50505050509080600201805461166d9061218c565b80601f01602080910402602001604051908101604052809291908181526020018280546116999061218c565b80156116e65780601f106116bb576101008083540402835291602001916116e6565b820191906000526020600020905b8154815290600101906020018083116116c957829003601f168201915b5050505050908060030160009054906101000a900473ffffffffffffffffffffffffffffffffffffffff16905084565b600033905090565b60405180610180016040528060008152602001606081526020016060815260200160608152602001606081526020016060815260200160008152602001600081526020016000815260200160008152602001600015158152602001611781611787565b81525090565b6040518060800160405280600081526020016060815260200160608152602001600073ffffffffffffffffffffffffffffffffffffffff1681525090565b6000604051905090565b600080fd5b600080fd5b6000819050919050565b6117ec816117d9565b81146117f757600080fd5b50565b600081359050611809816117e3565b92915050565b600060208284031215611825576118246117cf565b5b6000611833848285016117fa565b91505092915050565b611845816117d9565b82525050565b600081519050919050565b600082825260208201905092915050565b60005b8381101561188557808201518184015260208101905061186a565b60008484015250505050565b6000601f19601f8301169050919050565b60006118ad8261184b565b6118b78185611856565b93506118c7818560208601611867565b6118d081611891565b840191505092915050565b60008115159050919050565b6118f0816118db565b82525050565b6118ff816117d9565b82525050565b600082825260208201905092915050565b60006119218261184b565b61192b8185611905565b935061193b818560208601611867565b61194481611891565b840191505092915050565b600073ffffffffffffffffffffffffffffffffffffffff82169050919050565b600061197a8261194f565b9050919050565b61198a8161196f565b82525050565b60006080830160008301516119a860008601826118f6565b50602083015184820360208601526119c08282611916565b915050604083015184820360408601526119da8282611916565b91505060608301516119ef6060860182611981565b508091505092915050565b600061018082019050611a10600083018f61183c565b8181036020830152611a22818e6118a2565b90508181036040830152611a36818d6118a2565b90508181036060830152611a4a818c6118a2565b90508181036080830152611a5e818b6118a2565b905081810360a0830152611a72818a6118a2565b9050611a8160c083018961183c565b611a8e60e083018861183c565b611a9c61010083018761183c565b611aaa61012083018661183c565b611ab86101408301856118e7565b818103610160830152611acb8184611990565b90509d9c50505050505050505050505050565b600080fd5b600080fd5b7f4e487b7100000000000000000000000000000000000000000000000000000000600052604160045260246000fd5b611b2082611891565b810181811067ffffffffffffffff82111715611b3f57611b3e611ae8565b5b80604052505050565b6000611b526117c5565b9050611b5e8282611b17565b919050565b600067ffffffffffffffff821115611b7e57611b7d611ae8565b5b611b8782611891565b9050602081019050919050565b82818337600083830152505050565b6000611bb6611bb184611b63565b611b48565b905082815260208101848484011115611bd257611bd1611ae3565b5b611bdd848285611b94565b509392505050565b600082601f830112611bfa57611bf9611ade565b5b8135611c0a848260208601611ba3565b91505092915050565b60008060408385031215611c2a57611c296117cf565b5b600083013567ffffffffffffffff811115611c4857611c476117d4565b5b611c5485828601611be5565b925050602083013567ffffffffffffffff811115611c7557611c746117d4565b5b611c8185828601611be5565b9150509250929050565b6000602082019050611ca060008301846118e7565b92915050565b6000602082019050611cbb600083018461183c565b92915050565b600080600080600080600080610100898b031215611ce257611ce16117cf565b5b600089013567ffffffffffffffff811115611d0057611cff6117d4565b5b611d0c8b828c01611be5565b985050602089013567ffffffffffffffff811115611d2d57611d2c6117d4565b5b611d398b828c01611be5565b975050604089013567ffffffffffffffff811115611d5a57611d596117d4565b5b611d668b828c01611be5565b965050606089013567ffffffffffffffff811115611d8757611d866117d4565b5b611d938b828c01611be5565b955050608089013567ffffffffffffffff811115611db457611db36117d4565b5b611dc08b828c01611be5565b94505060a0611dd18b828c016117fa565b93505060c0611de28b828c016117fa565b92505060e0611df38b828c016117fa565b9150509295985092959890939650565b600081519050919050565b600082825260208201905092915050565b6000819050602082019050919050565b611e38816118db565b82525050565b6000608083016000830151611e5660008601826118f6565b5060208301518482036020860152611e6e8282611916565b91505060408301518482036040860152611e888282611916565b9150506060830151611e9d6060860182611981565b508091505092915050565b600061018083016000830151611ec160008601826118f6565b5060208301518482036020860152611ed98282611916565b91505060408301518482036040860152611ef38282611916565b91505060608301518482036060860152611f0d8282611916565b91505060808301518482036080860152611f278282611916565b91505060a083015184820360a0860152611f418282611916565b91505060c0830151611f5660c08601826118f6565b5060e0830151611f6960e08601826118f6565b50610100830151611f7e6101008601826118f6565b50610120830151611f936101208601826118f6565b50610140830151611fa8610140860182611e2f565b50610160830151848203610160860152611fc28282611e3e565b9150508091505092915050565b6000611fdb8383611ea8565b905092915050565b6000602082019050919050565b6000611ffb82611e03565b6120058185611e0e565b93508360208202850161201785611e1f565b8060005b8581101561205357848403895281516120348582611fcf565b945061203f83611fe3565b925060208a0199505060018101905061201b565b50829750879550505050505092915050565b6000602082019050818103600083015261207f8184611ff0565b905092915050565b6120908161196f565b811461209b57600080fd5b50565b6000813590506120ad81612087565b92915050565b6000602082840312156120c9576120c86117cf565b5b60006120d78482850161209e565b91505092915050565b6120e98161196f565b82525050565b6000608082019050612104600083018761183c565b818103602083015261211681866118a2565b9050818103604083015261212a81856118a2565b905061213960608301846120e0565b95945050505050565b600060208201905061215760008301846120e0565b92915050565b7f4e487b7100000000000000000000000000000000000000000000000000000000600052602260045260246000fd5b600060028204905060018216806121a457607f821691505b6020821081036121b7576121b661215d565b5b50919050565b7f496e76616c696420757365722061646472657373000000000000000000000000600082015250565b60006121f3601483611856565b91506121fe826121bd565b602082019050919050565b60006020820190508181036000830152612222816121e6565b9050919050565b7f5573657220616c72656164792072656769737465726564000000000000000000600082015250565b600061225f601783611856565b915061226a82612229565b602082019050919050565b6000602082019050818103600083015261228e81612252565b9050919050565b7f4e616d6520697320726571756972656400000000000000000000000000000000600082015250565b60006122cb601083611856565b91506122d682612295565b602082019050919050565b600060208201905081810360008301526122fa816122be565b9050919050565b7f456d61696c206973207265717569726564000000000000000000000000000000600082015250565b6000612337601183611856565b915061234282612301565b602082019050919050565b600060208201905081810360008301526123668161232a565b9050919050565b7f4e487b7100000000000000000000000000000000000000000000000000000000600052601160045260246000fd5b60006123a7826117d9565b91507fffffffffffffffffffffffffffffffffffffffffffffffffffffffffffffffff82036123d9576123d861236d565b5b600182019050919050565b60008190508160005260206000209050919050565b60006020601f8301049050919050565b600082821b905092915050565b6000600883026124467fffffffffffffffffffffffffffffffffffffffffffffffffffffffffffffffff82612409565b6124508683612409565b95508019841693508086168417925050509392505050565b6000819050919050565b600061248d612488612483846117d9565b612468565b6117d9565b9050919050565b6000819050919050565b6124a783612472565b6124bb6124b382612494565b848454612416565b825550505050565b600090565b6124d06124c3565b6124db81848461249e565b505050565b5b818110156124ff576124f46000826124c8565b6001810190506124e1565b5050565b601f82111561254457612515816123e4565b61251e846123f9565b8101602085101561252d578190505b612541612539856123f9565b8301826124e0565b50505b505050565b600082821c905092915050565b600061256760001984600802612549565b1980831691505092915050565b60006125808383612556565b9150826002028217905092915050565b6125998261184b565b67ffffffffffffffff8111156125b2576125b1611ae8565b5b6125bc825461218c565b6125c7828285612503565b600060209050601f8311600181146125fa57600084156125e8578287015190505b6125f28582612574565b86555061265a565b601f198416612608866123e4565b60005b828110156126305784890151825560018201915060208501945060208101905061260b565b8683101561264d5784890151612649601f891682612556565b8355505b6001600288020188555050505b505050505050565b7f556e617574686f72697a65640000000000000000000000000000000000000000600082015250565b6000612698600c83611856565b91506126a382612662565b602082019050919050565b600060208201905081810360008301526126c78161268b565b9050919050565b7f5469746c65206669656c64206973207265717569726564000000000000000000600082015250565b6000612704601783611856565b915061270f826126ce565b602082019050919050565b60006020820190508181036000830152612733816126f7565b9050919050565b7f4465736372697074696f6e206669656c64206973207265717569726564000000600082015250565b6000612770601d83611856565b915061277b8261273a565b602082019050919050565b6000602082019050818103600083015261279f81612763565b9050919050565b7f476f616c206669656c6420697320726571756972656400000000000000000000600082015250565b60006127dc601683611856565b91506127e7826127a6565b602082019050919050565b6000602082019050818103600083015261280b816127cf565b9050919050565b7f46696e616e6369616c206e6565647320696e666f6d6174696f6e20697320726560008201527f7175697265640000000000000000000000000000000000000000000000000000602082015250565b600061286e602683611856565b915061287982612812565b604082019050919050565b6000602082019050818103600083015261289d81612861565b9050919050565b7f436f6e747269627574696f6e206669656c642069732072657175697265640000600082015250565b60006128da601e83611856565b91506128e5826128a4565b602082019050919050565b60006020820190508181036000830152612909816128cd565b9050919050565b7f54617267657420646f6e6174696f6e2069732072657175697265640000000000600082015250565b6000612946601b83611856565b915061295182612910565b602082019050919050565b6000602082019050818103600083015261297581612939565b9050919050565b7f53746172742064617465206973206c657373207468616e20656e642064617465600082015250565b60006129b2602083611856565b91506129bd8261297c565b602082019050919050565b600060208201905081810360008301526129e1816129a5565b9050919050565b7f456e642064617465206973206c657373207468616e2073746172742064617465600082015250565b6000612a1e602083611856565b9150612a29826129e8565b602082019050919050565b60006020820190508181036000830152612a4d81612a11565b9050919050565b60006020820190508181036000830152612a6e81846118a2565b905092915050565b7f4e487b7100000000000000000000000000000000000000000000000000000000600052603260045260246000fdfea2646970667358221220f507cb8343bbbb87498a966995cde9c2a1687754db343b1b1ca08e26d97507d264736f6c63430008130033",
  "immutableReferences": {},
  "source": "// SPDX-License-Identifier: MIT\n\npragma solidity ^0.8.0;\n\nimport \"./UserRegistration.sol\";\n\ncontract CampaignRegistration is UserRegistration {\n    struct Campaign {\n        uint256 id;\n        string title;\n        string description;\n        string goal;\n        string financial_needs;\n        string contribution;\n        uint256 target_donation;\n        uint256 raised_amount;\n        uint256 start_date;\n        uint256 end_date;\n        bool isActive;\n        User owner;\n    }\n\n    mapping(uint256 => Campaign) public campaigns;\n    uint256 public campaignIdCounter;\n\n    event CampaignCreated(\n        uint256 indexed campaignId,\n        string title,\n        address indexed beneficiary\n    );\n\n    event CampaignClosed(\n        uint256 indexed campaignId,\n        string title,\n        address indexed beneficiary\n    );\n\n    function createCampaign(\n        string memory _title,\n        string memory _description,\n        string memory _goal,\n        string memory _financial_needs,\n        string memory _contribution,\n        uint256 _targetDonation,\n        uint256 _start_date,\n        uint256 _end_date\n    ) public {\n        require(isRegistered(), \"Unauthorized\");\n        require(bytes(_title).length > 0, \"Title field is required\");\n        require(\n            bytes(_description).length > 0,\n            \"Description field is required\"\n        );\n        require(bytes(_goal).length > 0, \"Goal field is required\");\n        require(\n            bytes(_financial_needs).length > 0,\n            \"Financial needs infomation is required\"\n        );\n        require(\n            bytes(_contribution).length > 0,\n            \"Contribution field is required\"\n        );\n        require(_targetDonation > 0, \"Target donation is required\");\n        require(\n            _start_date >= block.timestamp,\n            \"Start date is less than end date\"\n        );\n        require(_end_date > _start_date, \"End date is less than start date\");\n\n        campaignIdCounter++;\n\n        campaigns[campaignIdCounter] = Campaign({\n            id: campaignIdCounter,\n            title: _title,\n            description: _description,\n            goal: _goal,\n            financial_needs: _financial_needs,\n            contribution: _contribution,\n            raised_amount: 0,\n            target_donation: _targetDonation,\n            start_date: _start_date,\n            end_date: _end_date,\n            isActive: true,\n            owner: users[msg.sender]\n        });\n        emit CampaignCreated(campaignIdCounter, _title, msg.sender);\n    }\n\n    function getAllCampaigns() public view returns (Campaign[] memory) {\n        uint256 totalCampaigns = campaignIdCounter;\n        Campaign[] memory allCampaigns = new Campaign[](totalCampaigns);\n\n        uint256 index = 0;\n        for (uint256 i = 1; i <= totalCampaigns; i++) {\n            Campaign storage campaign = campaigns[i];\n            if (campaign.isActive) {\n                allCampaigns[index] = campaign;\n                index++;\n            }\n        }\n        return allCampaigns;\n    }\n}\n",
  "sourcePath": "/Users/Earn/Desktop/blockchain/web/dapp/contracts/CampaignRegistration.sol",
  "compiler": {
    "name": "solc",
    "version": "0.8.19+commit.7dd6d404.Emscripten.clang"
  },
  "schemaVersion": "3.4.13",
  "updatedAt": "2023-05-22T16:13:47.004Z",
  "networkType": "ethereum",
  "devdoc": {
    "kind": "dev",
    "methods": {},
    "version": 1
  },
  "userdoc": {
    "kind": "user",
    "methods": {},
    "version": 1
  }
}