{
  "contractName": "DonateSystem",
  "abi": [
    {
      "anonymous": false,
      "inputs": [
        {
          "indexed": true,
          "internalType": "uint256",
          "name": "campaignId",
          "type": "uint256"
        },
        {
          "indexed": false,
          "internalType": "string",
          "name": "title",
          "type": "string"
        },
        {
          "indexed": true,
          "internalType": "address",
          "name": "beneficiary",
          "type": "address"
        }
      ],
      "name": "CampaignClosed",
      "type": "event"
    },
    {
      "anonymous": false,
      "inputs": [
        {
          "indexed": true,
          "internalType": "uint256",
          "name": "campaignId",
          "type": "uint256"
        },
        {
          "indexed": false,
          "internalType": "string",
          "name": "title",
          "type": "string"
        },
        {
          "indexed": true,
          "internalType": "address",
          "name": "beneficiary",
          "type": "address"
        }
      ],
      "name": "CampaignCreated",
      "type": "event"
    },
    {
      "anonymous": false,
      "inputs": [
        {
          "indexed": true,
          "internalType": "uint256",
          "name": "campaignId",
          "type": "uint256"
        },
        {
          "indexed": true,
          "internalType": "address",
          "name": "userId",
          "type": "address"
        },
        {
          "indexed": false,
          "internalType": "uint256",
          "name": "amount",
          "type": "uint256"
        }
      ],
      "name": "DonationMade",
      "type": "event"
    },
    {
      "anonymous": false,
      "inputs": [
        {
          "indexed": true,
          "internalType": "address",
          "name": "userAddress",
          "type": "address"
        },
        {
          "indexed": true,
          "internalType": "uint256",
          "name": "userId",
          "type": "uint256"
        }
      ],
      "name": "UserRegistered",
      "type": "event"
    },
    {
      "inputs": [],
      "name": "campaignIdCounter",
      "outputs": [
        {
          "internalType": "uint256",
          "name": "",
          "type": "uint256"
        }
      ],
      "stateMutability": "view",
      "type": "function"
    },
    {
      "inputs": [
        {
          "internalType": "uint256",
          "name": "",
          "type": "uint256"
        }
      ],
      "name": "campaigns",
      "outputs": [
        {
          "internalType": "uint256",
          "name": "id",
          "type": "uint256"
        },
        {
          "internalType": "string",
          "name": "title",
          "type": "string"
        },
        {
          "internalType": "string",
          "name": "description",
          "type": "string"
        },
        {
          "internalType": "string",
          "name": "goal",
          "type": "string"
        },
        {
          "internalType": "string",
          "name": "financial_needs",
          "type": "string"
        },
        {
          "internalType": "string",
          "name": "contribution",
          "type": "string"
        },
        {
          "internalType": "uint256",
          "name": "target_donation",
          "type": "uint256"
        },
        {
          "internalType": "uint256",
          "name": "raised_amount",
          "type": "uint256"
        },
        {
          "internalType": "uint256",
          "name": "start_date",
          "type": "uint256"
        },
        {
          "internalType": "uint256",
          "name": "end_date",
          "type": "uint256"
        },
        {
          "internalType": "bool",
          "name": "isActive",
          "type": "bool"
        },
        {
          "internalType": "address",
          "name": "owner_address",
          "type": "address"
        }
      ],
      "stateMutability": "view",
      "type": "function"
    },
    {
      "inputs": [
        {
          "internalType": "string",
          "name": "_title",
          "type": "string"
        },
        {
          "internalType": "string",
          "name": "_description",
          "type": "string"
        },
        {
          "internalType": "string",
          "name": "_goal",
          "type": "string"
        },
        {
          "internalType": "string",
          "name": "_financial_needs",
          "type": "string"
        },
        {
          "internalType": "string",
          "name": "_contribution",
          "type": "string"
        },
        {
          "internalType": "uint256",
          "name": "_targetDonation",
          "type": "uint256"
        },
        {
          "internalType": "uint256",
          "name": "_start_date",
          "type": "uint256"
        },
        {
          "internalType": "uint256",
          "name": "_end_date",
          "type": "uint256"
        }
      ],
      "name": "createCampaign",
      "outputs": [],
      "stateMutability": "nonpayable",
      "type": "function"
    },
    {
      "inputs": [],
      "name": "donateCount",
      "outputs": [
        {
          "internalType": "uint256",
          "name": "",
          "type": "uint256"
        }
      ],
      "stateMutability": "view",
      "type": "function"
    },
    {
      "inputs": [
        {
          "internalType": "uint256",
          "name": "",
          "type": "uint256"
        }
      ],
      "name": "donations",
      "outputs": [
        {
          "internalType": "uint256",
          "name": "id",
          "type": "uint256"
        },
        {
          "internalType": "address",
          "name": "donator_address",
          "type": "address"
        },
        {
          "internalType": "uint256",
          "name": "campaignId",
          "type": "uint256"
        },
        {
          "internalType": "uint256",
          "name": "amount",
          "type": "uint256"
        },
        {
          "internalType": "bool",
          "name": "is_refunded",
          "type": "bool"
        },
        {
          "internalType": "bool",
          "name": "is_transfered_to_owner",
          "type": "bool"
        }
      ],
      "stateMutability": "view",
      "type": "function"
    },
    {
      "inputs": [],
      "name": "getAllCampaigns",
      "outputs": [
        {
          "components": [
            {
              "internalType": "uint256",
              "name": "id",
              "type": "uint256"
            },
            {
              "internalType": "string",
              "name": "title",
              "type": "string"
            },
            {
              "internalType": "string",
              "name": "description",
              "type": "string"
            },
            {
              "internalType": "string",
              "name": "goal",
              "type": "string"
            },
            {
              "internalType": "string",
              "name": "financial_needs",
              "type": "string"
            },
            {
              "internalType": "string",
              "name": "contribution",
              "type": "string"
            },
            {
              "internalType": "uint256",
              "name": "target_donation",
              "type": "uint256"
            },
            {
              "internalType": "uint256",
              "name": "raised_amount",
              "type": "uint256"
            },
            {
              "internalType": "uint256",
              "name": "start_date",
              "type": "uint256"
            },
            {
              "internalType": "uint256",
              "name": "end_date",
              "type": "uint256"
            },
            {
              "internalType": "bool",
              "name": "isActive",
              "type": "bool"
            },
            {
              "internalType": "address",
              "name": "owner_address",
              "type": "address"
            }
          ],
          "internalType": "struct CampaignRegistration.Campaign[]",
          "name": "",
          "type": "tuple[]"
        }
      ],
      "stateMutability": "view",
      "type": "function"
    },
    {
      "inputs": [],
      "name": "isRegistered",
      "outputs": [
        {
          "internalType": "bool",
          "name": "",
          "type": "bool"
        }
      ],
      "stateMutability": "view",
      "type": "function"
    },
    {
      "inputs": [
        {
          "internalType": "uint256",
          "name": "_amount",
          "type": "uint256"
        },
        {
          "internalType": "address",
          "name": "_recipant",
          "type": "address"
        }
      ],
      "name": "makePayment",
      "outputs": [],
      "stateMutability": "payable",
      "type": "function"
    },
    {
      "inputs": [
        {
          "internalType": "string",
          "name": "_name",
          "type": "string"
        },
        {
          "internalType": "string",
          "name": "_email",
          "type": "string"
        }
      ],
      "name": "registerUser",
      "outputs": [],
      "stateMutability": "nonpayable",
      "type": "function"
    },
    {
      "inputs": [],
      "name": "userIdCounter",
      "outputs": [
        {
          "internalType": "uint256",
          "name": "",
          "type": "uint256"
        }
      ],
      "stateMutability": "view",
      "type": "function"
    },
    {
      "inputs": [
        {
          "internalType": "address",
          "name": "",
          "type": "address"
        }
      ],
      "name": "users",
      "outputs": [
        {
          "internalType": "uint256",
          "name": "id",
          "type": "uint256"
        },
        {
          "internalType": "string",
          "name": "name",
          "type": "string"
        },
        {
          "internalType": "string",
          "name": "email",
          "type": "string"
        }
      ],
      "stateMutability": "view",
      "type": "function"
    },
    {
      "inputs": [
        {
          "internalType": "uint256",
          "name": "_campaign_id",
          "type": "uint256"
        },
        {
          "internalType": "uint256",
          "name": "_amount",
          "type": "uint256"
        }
      ],
      "name": "donateToPool",
      "outputs": [],
      "stateMutability": "payable",
      "type": "function"
    },
    {
      "inputs": [
        {
          "internalType": "uint256",
          "name": "_campaignId",
          "type": "uint256"
        }
      ],
      "name": "closeCampaign",
      "outputs": [],
      "stateMutability": "nonpayable",
      "type": "function"
    },
    {
      "inputs": [
        {
          "internalType": "uint256",
          "name": "_campaignId",
          "type": "uint256"
        }
      ],
      "name": "getDonationHistory",
      "outputs": [
        {
          "components": [
            {
              "internalType": "uint256",
              "name": "id",
              "type": "uint256"
            },
            {
              "internalType": "address",
              "name": "donator_address",
              "type": "address"
            },
            {
              "internalType": "uint256",
              "name": "campaignId",
              "type": "uint256"
            },
            {
              "internalType": "uint256",
              "name": "amount",
              "type": "uint256"
            },
            {
              "internalType": "bool",
              "name": "is_refunded",
              "type": "bool"
            },
            {
              "internalType": "bool",
              "name": "is_transfered_to_owner",
              "type": "bool"
            }
          ],
          "internalType": "struct DonateSystem.Donation[]",
          "name": "",
          "type": "tuple[]"
        }
      ],
      "stateMutability": "view",
      "type": "function"
    }
  ],
  "bytecode": "0x608060405234801561001057600080fd5b5061355c806100206000396000f3fe6080604052600436106100dd5760003560e01c80632faba6ae1161007f57806386cdf6041161005957806386cdf6041461029d578063a87430ba146102c8578063b0e1c1e114610307578063f8626af814610330576100dd565b80632faba6ae1461022d5780635e3de4ca146102585780637ff7438114610281576100dd565b80632001cdfe116100bb5780632001cdfe1461017e578063223668441461019a5780632869a6e6146101c55780632e61867614610202576100dd565b80630854e60d146100e2578063141961bc1461010d5780631d2e4afd14610155575b600080fd5b3480156100ee57600080fd5b506100f7610372565b6040516101049190611ce7565b60405180910390f35b34801561011957600080fd5b50610134600480360381019061012f9190611d42565b610378565b60405161014c9c9b9a99989796959493929190611e5b565b60405180910390f35b34801561016157600080fd5b5061017c6004803603810190610177919061206d565b6106ad565b005b610198600480360381019061019391906120e5565b6108af565b005b3480156101a657600080fd5b506101af610ba9565b6040516101bc9190612125565b60405180910390f35b3480156101d157600080fd5b506101ec60048036038101906101e79190611d42565b610bf5565b6040516101f99190612297565b60405180910390f35b34801561020e57600080fd5b50610217610dc7565b6040516102249190611ce7565b60405180910390f35b34801561023957600080fd5b50610242610dcd565b60405161024f9190611ce7565b60405180910390f35b34801561026457600080fd5b5061027f600480360381019061027a91906122b9565b610dd3565b005b61029b60048036038101906102969190612427565b61123a565b005b3480156102a957600080fd5b506102b2611340565b6040516102bf9190612693565b60405180910390f35b3480156102d457600080fd5b506102ef60048036038101906102ea91906126b5565b6117b3565b6040516102fe939291906126e2565b60405180910390f35b34801561031357600080fd5b5061032e60048036038101906103299190611d42565b6118ed565b005b34801561033c57600080fd5b5061035760048036038101906103529190611d42565b611b8f565b60405161036996959493929190612727565b60405180910390f35b60055481565b60026020528060005260406000206000915090508060000154908060010180546103a1906127b7565b80601f01602080910402602001604051908101604052809291908181526020018280546103cd906127b7565b801561041a5780601f106103ef5761010080835404028352916020019161041a565b820191906000526020600020905b8154815290600101906020018083116103fd57829003601f168201915b50505050509080600201805461042f906127b7565b80601f016020809104026020016040519081016040528092919081815260200182805461045b906127b7565b80156104a85780601f1061047d576101008083540402835291602001916104a8565b820191906000526020600020905b81548152906001019060200180831161048b57829003601f168201915b5050505050908060030180546104bd906127b7565b80601f01602080910402602001604051908101604052809291908181526020018280546104e9906127b7565b80156105365780601f1061050b57610100808354040283529160200191610536565b820191906000526020600020905b81548152906001019060200180831161051957829003601f168201915b50505050509080600401805461054b906127b7565b80601f0160208091040260200160405190810160405280929190818152602001828054610577906127b7565b80156105c45780601f10610599576101008083540402835291602001916105c4565b820191906000526020600020905b8154815290600101906020018083116105a757829003601f168201915b5050505050908060050180546105d9906127b7565b80601f0160208091040260200160405190810160405280929190818152602001828054610605906127b7565b80156106525780601f1061062757610100808354040283529160200191610652565b820191906000526020600020905b81548152906001019060200180831161063557829003601f168201915b50505050509080600601549080600701549080600801549080600901549080600a0160009054906101000a900460ff169080600a0160019054906101000a900473ffffffffffffffffffffffffffffffffffffffff1690508c565b60008060003373ffffffffffffffffffffffffffffffffffffffff1673ffffffffffffffffffffffffffffffffffffffff1681526020019081526020016000206000015414610731576040517f08c379a000000000000000000000000000000000000000000000000000000000815260040161072890612834565b60405180910390fd5b6000825111610775576040517f08c379a000000000000000000000000000000000000000000000000000000000815260040161076c906128a0565b60405180910390fd5b60008151116107b9576040517f08c379a00000000000000000000000000000000000000000000000000000000081526004016107b09061290c565b60405180910390fd5b600160008154809291906107cc9061295b565b919050555060405180606001604052806001548152602001838152602001828152506000803373ffffffffffffffffffffffffffffffffffffffff1673ffffffffffffffffffffffffffffffffffffffff16815260200190815260200160002060008201518160000155602082015181600101908161084b9190612b4f565b5060408201518160020190816108619190612b4f565b509050506001543373ffffffffffffffffffffffffffffffffffffffff167fe29d35093005f4d575e1003753426b57a7f64378ba73332eef9c6ccc2b8decd660405160405180910390a35050565b600081116108f2576040517f08c379a00000000000000000000000000000000000000000000000000000000081526004016108e990612c6d565b60405180910390fd5b6108fa610ba9565b610939576040517f08c379a000000000000000000000000000000000000000000000000000000000815260040161093090612cd9565b60405180910390fd5b803373ffffffffffffffffffffffffffffffffffffffff163111610992576040517f08c379a000000000000000000000000000000000000000000000000000000000815260040161098990612c6d565b60405180910390fd5b60006002600084815260200190815260200160002060000154116109eb576040517f08c379a00000000000000000000000000000000000000000000000000000000081526004016109e290612d45565b60405180910390fd5b600560008154809291906109fe9061295b565b91905055506040518060c0016040528060055481526020013373ffffffffffffffffffffffffffffffffffffffff168152602001838152602001828152602001600015158152602001600015158152506004600060055481526020019081526020016000206000820151816000015560208201518160010160006101000a81548173ffffffffffffffffffffffffffffffffffffffff021916908373ffffffffffffffffffffffffffffffffffffffff160217905550604082015181600201556060820151816003015560808201518160040160006101000a81548160ff02191690831515021790555060a08201518160040160016101000a81548160ff02191690831515021790555090505080600260008481526020019081526020016000206007016000828254610b319190612d65565b92505081905550610b568173dd870fa1b7c4700f2bd7f44238821c26f739214861123a565b3373ffffffffffffffffffffffffffffffffffffffff16827fe555da28bdb778f65d22794d88927ebaeca03f7de9d1b7d39245bc8fb5ca078a83604051610b9d9190611ce7565b60405180910390a35050565b6000806000803373ffffffffffffffffffffffffffffffffffffffff1673ffffffffffffffffffffffffffffffffffffffff168152602001908152602001600020600001541415905090565b6060600354821115610c3c576040517f08c379a0000000000000000000000000000000000000000000000000000000008152600401610c3390612de5565b60405180910390fd5b600060055467ffffffffffffffff811115610c5a57610c59611f42565b5b604051908082528060200260200182016040528015610c9357816020015b610c80611c05565b815260200190600190039081610c785790505b5090506000600190505b6005548111610dbd5783600460008381526020019081526020016000206000015403610daa57600460008281526020019081526020016000206040518060c0016040529081600082015481526020016001820160009054906101000a900473ffffffffffffffffffffffffffffffffffffffff1673ffffffffffffffffffffffffffffffffffffffff1673ffffffffffffffffffffffffffffffffffffffff16815260200160028201548152602001600382015481526020016004820160009054906101000a900460ff161515151581526020016004820160019054906101000a900460ff161515151581525050828281518110610d9e57610d9d612e05565b5b60200260200101819052505b8080610db59061295b565b915050610c9d565b5080915050919050565b60035481565b60015481565b610ddb610ba9565b610e1a576040517f08c379a0000000000000000000000000000000000000000000000000000000008152600401610e1190612e80565b60405180910390fd5b6000885111610e5e576040517f08c379a0000000000000000000000000000000000000000000000000000000008152600401610e5590612eec565b60405180910390fd5b6000875111610ea2576040517f08c379a0000000000000000000000000000000000000000000000000000000008152600401610e9990612f58565b60405180910390fd5b6000865111610ee6576040517f08c379a0000000000000000000000000000000000000000000000000000000008152600401610edd90612fc4565b60405180910390fd5b6000855111610f2a576040517f08c379a0000000000000000000000000000000000000000000000000000000008152600401610f2190613056565b60405180910390fd5b6000845111610f6e576040517f08c379a0000000000000000000000000000000000000000000000000000000008152600401610f65906130c2565b60405180910390fd5b60008311610fb1576040517f08c379a0000000000000000000000000000000000000000000000000000000008152600401610fa89061312e565b60405180910390fd5b42821015610ff4576040517f08c379a0000000000000000000000000000000000000000000000000000000008152600401610feb9061319a565b60405180910390fd5b818111611036576040517f08c379a000000000000000000000000000000000000000000000000000000000815260040161102d90613206565b60405180910390fd5b600360008154809291906110499061295b565b91905055506040518061018001604052806003548152602001898152602001888152602001878152602001868152602001858152602001848152602001600081526020018381526020018281526020016001151581526020013373ffffffffffffffffffffffffffffffffffffffff168152506002600060035481526020019081526020016000206000820151816000015560208201518160010190816110f09190612b4f565b5060408201518160020190816111069190612b4f565b50606082015181600301908161111c9190612b4f565b5060808201518160040190816111329190612b4f565b5060a08201518160050190816111489190612b4f565b5060c0820151816006015560e082015181600701556101008201518160080155610120820151816009015561014082015181600a0160006101000a81548160ff02191690831515021790555061016082015181600a0160016101000a81548173ffffffffffffffffffffffffffffffffffffffff021916908373ffffffffffffffffffffffffffffffffffffffff1602179055509050503373ffffffffffffffffffffffffffffffffffffffff166003547f2750eae5c1c1d8000d7e674f15576524a1b7e24f4a33052e9d80ce3889556e398a6040516112289190613226565b60405180910390a35050505050505050565b670de0b6b3a76400008261124e9190613248565b341461128f576040517f08c379a0000000000000000000000000000000000000000000000000000000008152600401611286906132d6565b60405180910390fd5b60008173ffffffffffffffffffffffffffffffffffffffff16836040516112b590613327565b60006040518083038185875af1925050503d80600081146112f2576040519150601f19603f3d011682016040523d82523d6000602084013e6112f7565b606091505b505090508061133b576040517f08c379a000000000000000000000000000000000000000000000000000000000815260040161133290613388565b60405180910390fd5b505050565b60606000600354905060008167ffffffffffffffff81111561136557611364611f42565b5b60405190808252806020026020018201604052801561139e57816020015b61138b611c55565b8152602001906001900390816113835790505b509050600080600190505b8381116117a957600060026000838152602001908152602001600020905080600a0160009054906101000a900460ff161561179557806040518061018001604052908160008201548152602001600182018054611405906127b7565b80601f0160208091040260200160405190810160405280929190818152602001828054611431906127b7565b801561147e5780601f106114535761010080835404028352916020019161147e565b820191906000526020600020905b81548152906001019060200180831161146157829003601f168201915b50505050508152602001600282018054611497906127b7565b80601f01602080910402602001604051908101604052809291908181526020018280546114c3906127b7565b80156115105780601f106114e557610100808354040283529160200191611510565b820191906000526020600020905b8154815290600101906020018083116114f357829003601f168201915b50505050508152602001600382018054611529906127b7565b80601f0160208091040260200160405190810160405280929190818152602001828054611555906127b7565b80156115a25780601f10611577576101008083540402835291602001916115a2565b820191906000526020600020905b81548152906001019060200180831161158557829003601f168201915b505050505081526020016004820180546115bb906127b7565b80601f01602080910402602001604051908101604052809291908181526020018280546115e7906127b7565b80156116345780601f1061160957610100808354040283529160200191611634565b820191906000526020600020905b81548152906001019060200180831161161757829003601f168201915b5050505050815260200160058201805461164d906127b7565b80601f0160208091040260200160405190810160405280929190818152602001828054611679906127b7565b80156116c65780601f1061169b576101008083540402835291602001916116c6565b820191906000526020600020905b8154815290600101906020018083116116a957829003601f168201915b5050505050815260200160068201548152602001600782015481526020016008820154815260200160098201548152602001600a820160009054906101000a900460ff16151515158152602001600a820160019054906101000a900473ffffffffffffffffffffffffffffffffffffffff1673ffffffffffffffffffffffffffffffffffffffff1673ffffffffffffffffffffffffffffffffffffffff168152505084848151811061177b5761177a612e05565b5b602002602001018190525082806117919061295b565b9350505b5080806117a19061295b565b9150506113a9565b5081935050505090565b60006020528060005260406000206000915090508060000154908060010180546117dc906127b7565b80601f0160208091040260200160405190810160405280929190818152602001828054611808906127b7565b80156118555780601f1061182a57610100808354040283529160200191611855565b820191906000526020600020905b81548152906001019060200180831161183857829003601f168201915b50505050509080600201805461186a906127b7565b80601f0160208091040260200160405190810160405280929190818152602001828054611896906127b7565b80156118e35780601f106118b8576101008083540402835291602001916118e3565b820191906000526020600020905b8154815290600101906020018083116118c657829003601f168201915b5050505050905083565b600354811115611932576040517f08c379a000000000000000000000000000000000000000000000000000000000815260040161192990612de5565b60405180910390fd5b600060026000838152602001908152602001600020905080600a0160009054906101000a900460ff1661199a576040517f08c379a0000000000000000000000000000000000000000000000000000000008152600401611991906133f4565b60405180910390fd5b60006119a583610bf5565b90508160060154826007015410611a3b576119e8826007015483600a0160019054906101000a900473ffffffffffffffffffffffffffffffffffffffff1661123a565b6000600190505b81518111611a35576001828281518110611a0c57611a0b612e05565b5b602002602001015160a00190151590811515815250508080611a2d9061295b565b9150506119ef565b50611b17565b8160090154421015611a82576040517f08c379a0000000000000000000000000000000000000000000000000000000008152600401611a7990613460565b60405180910390fd5b6000600190505b81518111611b1557611ad7828281518110611aa757611aa6612e05565b5b602002602001015160600151838381518110611ac657611ac5612e05565b5b60200260200101516020015161123a565b6001828281518110611aec57611aeb612e05565b5b602002602001015160800190151590811515815250508080611b0d9061295b565b915050611a89565b505b600082600a0160006101000a81548160ff0219169083151502179055503373ffffffffffffffffffffffffffffffffffffffff1682600001547f1ad84f5c06fab0f426ef9b735fe75d068d045a9fc3f27d9d8d7386872fa8345684600101604051611b829190613504565b60405180910390a3505050565b60046020528060005260406000206000915090508060000154908060010160009054906101000a900473ffffffffffffffffffffffffffffffffffffffff16908060020154908060030154908060040160009054906101000a900460ff16908060040160019054906101000a900460ff16905086565b6040518060c0016040528060008152602001600073ffffffffffffffffffffffffffffffffffffffff16815260200160008152602001600081526020016000151581526020016000151581525090565b60405180610180016040528060008152602001606081526020016060815260200160608152602001606081526020016060815260200160008152602001600081526020016000815260200160008152602001600015158152602001600073ffffffffffffffffffffffffffffffffffffffff1681525090565b6000819050919050565b611ce181611cce565b82525050565b6000602082019050611cfc6000830184611cd8565b92915050565b6000604051905090565b600080fd5b600080fd5b611d1f81611cce565b8114611d2a57600080fd5b50565b600081359050611d3c81611d16565b92915050565b600060208284031215611d5857611d57611d0c565b5b6000611d6684828501611d2d565b91505092915050565b600081519050919050565b600082825260208201905092915050565b60005b83811015611da9578082015181840152602081019050611d8e565b60008484015250505050565b6000601f19601f8301169050919050565b6000611dd182611d6f565b611ddb8185611d7a565b9350611deb818560208601611d8b565b611df481611db5565b840191505092915050565b60008115159050919050565b611e1481611dff565b82525050565b600073ffffffffffffffffffffffffffffffffffffffff82169050919050565b6000611e4582611e1a565b9050919050565b611e5581611e3a565b82525050565b600061018082019050611e71600083018f611cd8565b8181036020830152611e83818e611dc6565b90508181036040830152611e97818d611dc6565b90508181036060830152611eab818c611dc6565b90508181036080830152611ebf818b611dc6565b905081810360a0830152611ed3818a611dc6565b9050611ee260c0830189611cd8565b611eef60e0830188611cd8565b611efd610100830187611cd8565b611f0b610120830186611cd8565b611f19610140830185611e0b565b611f27610160830184611e4c565b9d9c50505050505050505050505050565b600080fd5b600080fd5b7f4e487b7100000000000000000000000000000000000000000000000000000000600052604160045260246000fd5b611f7a82611db5565b810181811067ffffffffffffffff82111715611f9957611f98611f42565b5b80604052505050565b6000611fac611d02565b9050611fb88282611f71565b919050565b600067ffffffffffffffff821115611fd857611fd7611f42565b5b611fe182611db5565b9050602081019050919050565b82818337600083830152505050565b600061201061200b84611fbd565b611fa2565b90508281526020810184848401111561202c5761202b611f3d565b5b612037848285611fee565b509392505050565b600082601f83011261205457612053611f38565b5b8135612064848260208601611ffd565b91505092915050565b6000806040838503121561208457612083611d0c565b5b600083013567ffffffffffffffff8111156120a2576120a1611d11565b5b6120ae8582860161203f565b925050602083013567ffffffffffffffff8111156120cf576120ce611d11565b5b6120db8582860161203f565b9150509250929050565b600080604083850312156120fc576120fb611d0c565b5b600061210a85828601611d2d565b925050602061211b85828601611d2d565b9150509250929050565b600060208201905061213a6000830184611e0b565b92915050565b600081519050919050565b600082825260208201905092915050565b6000819050602082019050919050565b61217581611cce565b82525050565b61218481611e3a565b82525050565b61219381611dff565b82525050565b60c0820160008201516121af600085018261216c565b5060208201516121c2602085018261217b565b5060408201516121d5604085018261216c565b5060608201516121e8606085018261216c565b5060808201516121fb608085018261218a565b5060a082015161220e60a085018261218a565b50505050565b60006122208383612199565b60c08301905092915050565b6000602082019050919050565b600061224482612140565b61224e818561214b565b93506122598361215c565b8060005b8381101561228a5781516122718882612214565b975061227c8361222c565b92505060018101905061225d565b5085935050505092915050565b600060208201905081810360008301526122b18184612239565b905092915050565b600080600080600080600080610100898b0312156122da576122d9611d0c565b5b600089013567ffffffffffffffff8111156122f8576122f7611d11565b5b6123048b828c0161203f565b985050602089013567ffffffffffffffff81111561232557612324611d11565b5b6123318b828c0161203f565b975050604089013567ffffffffffffffff81111561235257612351611d11565b5b61235e8b828c0161203f565b965050606089013567ffffffffffffffff81111561237f5761237e611d11565b5b61238b8b828c0161203f565b955050608089013567ffffffffffffffff8111156123ac576123ab611d11565b5b6123b88b828c0161203f565b94505060a06123c98b828c01611d2d565b93505060c06123da8b828c01611d2d565b92505060e06123eb8b828c01611d2d565b9150509295985092959890939650565b61240481611e3a565b811461240f57600080fd5b50565b600081359050612421816123fb565b92915050565b6000806040838503121561243e5761243d611d0c565b5b600061244c85828601611d2d565b925050602061245d85828601612412565b9150509250929050565b600081519050919050565b600082825260208201905092915050565b6000819050602082019050919050565b600082825260208201905092915050565b60006124af82611d6f565b6124b98185612493565b93506124c9818560208601611d8b565b6124d281611db5565b840191505092915050565b6000610180830160008301516124f6600086018261216c565b506020830151848203602086015261250e82826124a4565b9150506040830151848203604086015261252882826124a4565b9150506060830151848203606086015261254282826124a4565b9150506080830151848203608086015261255c82826124a4565b91505060a083015184820360a086015261257682826124a4565b91505060c083015161258b60c086018261216c565b5060e083015161259e60e086018261216c565b506101008301516125b361010086018261216c565b506101208301516125c861012086018261216c565b506101408301516125dd61014086018261218a565b506101608301516125f261016086018261217b565b508091505092915050565b600061260983836124dd565b905092915050565b6000602082019050919050565b600061262982612467565b6126338185612472565b93508360208202850161264585612483565b8060005b85811015612681578484038952815161266285826125fd565b945061266d83612611565b925060208a01995050600181019050612649565b50829750879550505050505092915050565b600060208201905081810360008301526126ad818461261e565b905092915050565b6000602082840312156126cb576126ca611d0c565b5b60006126d984828501612412565b91505092915050565b60006060820190506126f76000830186611cd8565b81810360208301526127098185611dc6565b9050818103604083015261271d8184611dc6565b9050949350505050565b600060c08201905061273c6000830189611cd8565b6127496020830188611e4c565b6127566040830187611cd8565b6127636060830186611cd8565b6127706080830185611e0b565b61277d60a0830184611e0b565b979650505050505050565b7f4e487b7100000000000000000000000000000000000000000000000000000000600052602260045260246000fd5b600060028204905060018216806127cf57607f821691505b6020821081036127e2576127e1612788565b5b50919050565b7f5573657220616c72656164792072656769737465726564000000000000000000600082015250565b600061281e601783611d7a565b9150612829826127e8565b602082019050919050565b6000602082019050818103600083015261284d81612811565b9050919050565b7f4e616d6520697320726571756972656400000000000000000000000000000000600082015250565b600061288a601083611d7a565b915061289582612854565b602082019050919050565b600060208201905081810360008301526128b98161287d565b9050919050565b7f456d61696c206973207265717569726564000000000000000000000000000000600082015250565b60006128f6601183611d7a565b9150612901826128c0565b602082019050919050565b60006020820190508181036000830152612925816128e9565b9050919050565b7f4e487b7100000000000000000000000000000000000000000000000000000000600052601160045260246000fd5b600061296682611cce565b91507fffffffffffffffffffffffffffffffffffffffffffffffffffffffffffffffff82036129985761299761292c565b5b600182019050919050565b60008190508160005260206000209050919050565b60006020601f8301049050919050565b600082821b905092915050565b600060088302612a057fffffffffffffffffffffffffffffffffffffffffffffffffffffffffffffffff826129c8565b612a0f86836129c8565b95508019841693508086168417925050509392505050565b6000819050919050565b6000612a4c612a47612a4284611cce565b612a27565b611cce565b9050919050565b6000819050919050565b612a6683612a31565b612a7a612a7282612a53565b8484546129d5565b825550505050565b600090565b612a8f612a82565b612a9a818484612a5d565b505050565b5b81811015612abe57612ab3600082612a87565b600181019050612aa0565b5050565b601f821115612b0357612ad4816129a3565b612add846129b8565b81016020851015612aec578190505b612b00612af8856129b8565b830182612a9f565b50505b505050565b600082821c905092915050565b6000612b2660001984600802612b08565b1980831691505092915050565b6000612b3f8383612b15565b9150826002028217905092915050565b612b5882611d6f565b67ffffffffffffffff811115612b7157612b70611f42565b5b612b7b82546127b7565b612b86828285612ac2565b600060209050601f831160018114612bb95760008415612ba7578287015190505b612bb18582612b33565b865550612c19565b601f198416612bc7866129a3565b60005b82811015612bef57848901518255600182019150602085019450602081019050612bca565b86831015612c0c5784890151612c08601f891682612b15565b8355505b6001600288020188555050505b505050505050565b7f416d6f756e74206d7573742062652067726561746572207468616e207a65726f600082015250565b6000612c57602083611d7a565b9150612c6282612c21565b602082019050919050565b60006020820190508181036000830152612c8681612c4a565b9050919050565b7f55736572206e6f74207265676973746572656400000000000000000000000000600082015250565b6000612cc3601383611d7a565b9150612cce82612c8d565b602082019050919050565b60006020820190508181036000830152612cf281612cb6565b9050919050565b7f43616d706169676e20646f6573206e6f74206578697374000000000000000000600082015250565b6000612d2f601783611d7a565b9150612d3a82612cf9565b602082019050919050565b60006020820190508181036000830152612d5e81612d22565b9050919050565b6000612d7082611cce565b9150612d7b83611cce565b9250828201905080821115612d9357612d9261292c565b5b92915050565b7f496e76616c69642063616d706169676e20494400000000000000000000000000600082015250565b6000612dcf601383611d7a565b9150612dda82612d99565b602082019050919050565b60006020820190508181036000830152612dfe81612dc2565b9050919050565b7f4e487b7100000000000000000000000000000000000000000000000000000000600052603260045260246000fd5b7f556e617574686f72697a65640000000000000000000000000000000000000000600082015250565b6000612e6a600c83611d7a565b9150612e7582612e34565b602082019050919050565b60006020820190508181036000830152612e9981612e5d565b9050919050565b7f5469746c65206669656c64206973207265717569726564000000000000000000600082015250565b6000612ed6601783611d7a565b9150612ee182612ea0565b602082019050919050565b60006020820190508181036000830152612f0581612ec9565b9050919050565b7f4465736372697074696f6e206669656c64206973207265717569726564000000600082015250565b6000612f42601d83611d7a565b9150612f4d82612f0c565b602082019050919050565b60006020820190508181036000830152612f7181612f35565b9050919050565b7f476f616c206669656c6420697320726571756972656400000000000000000000600082015250565b6000612fae601683611d7a565b9150612fb982612f78565b602082019050919050565b60006020820190508181036000830152612fdd81612fa1565b9050919050565b7f46696e616e6369616c206e6565647320696e666f6d6174696f6e20697320726560008201527f7175697265640000000000000000000000000000000000000000000000000000602082015250565b6000613040602683611d7a565b915061304b82612fe4565b604082019050919050565b6000602082019050818103600083015261306f81613033565b9050919050565b7f436f6e747269627574696f6e206669656c642069732072657175697265640000600082015250565b60006130ac601e83611d7a565b91506130b782613076565b602082019050919050565b600060208201905081810360008301526130db8161309f565b9050919050565b7f54617267657420646f6e6174696f6e2069732072657175697265640000000000600082015250565b6000613118601b83611d7a565b9150613123826130e2565b602082019050919050565b600060208201905081810360008301526131478161310b565b9050919050565b7f53746172742064617465206973206c657373207468616e20656e642064617465600082015250565b6000613184602083611d7a565b915061318f8261314e565b602082019050919050565b600060208201905081810360008301526131b381613177565b9050919050565b7f456e642064617465206973206c657373207468616e2073746172742064617465600082015250565b60006131f0602083611d7a565b91506131fb826131ba565b602082019050919050565b6000602082019050818103600083015261321f816131e3565b9050919050565b600060208201905081810360008301526132408184611dc6565b905092915050565b600061325382611cce565b915061325e83611cce565b925082820261326c81611cce565b915082820484148315176132835761328261292c565b5b5092915050565b7f496e76616c6964205061796d656e740000000000000000000000000000000000600082015250565b60006132c0600f83611d7a565b91506132cb8261328a565b602082019050919050565b600060208201905081810360008301526132ef816132b3565b9050919050565b600081905092915050565b50565b60006133116000836132f6565b915061331c82613301565b600082019050919050565b600061333282613304565b9150819050919050565b7f5061796d656e74206661696c6564000000000000000000000000000000000000600082015250565b6000613372600e83611d7a565b915061337d8261333c565b602082019050919050565b600060208201905081810360008301526133a181613365565b9050919050565b7f43616d706169676e206973206e6f742061637469766500000000000000000000600082015250565b60006133de601683611d7a565b91506133e9826133a8565b602082019050919050565b6000602082019050818103600083015261340d816133d1565b9050919050565b7f43616d706169676e20656e642064617465206e6f742072656163686564000000600082015250565b600061344a601d83611d7a565b915061345582613414565b602082019050919050565b600060208201905081810360008301526134798161343d565b9050919050565b6000815461348d816127b7565b6134978186611d7a565b945060018216600081146134b257600181146134c8576134fb565b60ff1983168652811515602002860193506134fb565b6134d1856129a3565b60005b838110156134f3578154818901526001820191506020810190506134d4565b808801955050505b50505092915050565b6000602082019050818103600083015261351e8184613480565b90509291505056fea2646970667358221220bc614d50226e4d1997650d0ec0bf303e98f4d26ca20ff06828e19b37dccbe33a64736f6c63430008130033",
  "immutableReferences": {},
  "source": "// SPDX-License-Identifier: MIT\n\npragma solidity ^0.8.0;\n\nimport \"./CampaignRegistration.sol\";\nimport \"./PaymentSystem.sol\";\n\ncontract DonateSystem is CampaignRegistration, PaymentSystem {\n    struct Donation {\n        uint256 id;\n        address donator_address;\n        uint256 campaignId;\n        uint256 amount;\n        bool is_refunded;\n        bool is_transfered_to_owner;\n    }\n\n    mapping(uint256 => Donation) public donations;\n    uint256 public donateCount;\n    address private constant DONATION_POOL =\n        0xdD870fA1b7C4700F2BD7f44238821C26f7392148;\n    event DonationMade(\n        uint256 indexed campaignId,\n        address indexed userId,\n        uint256 amount\n    );\n\n    function donateToPool(uint256 _campaign_id, uint256 _amount)\n        public\n        payable\n    {\n        require(_amount > 0, \"Amount must be greater than zero\");\n        require(isRegistered(), \"User not registered\");\n        require(\n            msg.sender.balance > _amount,\n            \"Amount must be greater than zero\"\n        );\n        require(campaigns[_campaign_id].id > 0, \"Campaign does not exist\");\n\n        donateCount++;\n        \n        donations[donateCount] = Donation({\n            id: donateCount,\n            donator_address: msg.sender,\n            campaignId: _campaign_id,\n            amount: _amount,\n            is_refunded: false,\n            is_transfered_to_owner: false\n        });\n\n        campaigns[_campaign_id].raised_amount += _amount;\n        makePayment(_amount, DONATION_POOL);\n        emit DonationMade(_campaign_id, msg.sender, _amount);\n    }\n\n    function closeCampaign(uint256 _campaignId) public {\n        require(_campaignId <= campaignIdCounter, \"Invalid campaign ID\");\n        Campaign storage campaign = campaigns[_campaignId];\n        require(campaign.isActive, \"Campaign is not active\");\n    \n\n        Donation[] memory history = getDonationHistory(_campaignId);\n        if (campaign.raised_amount >= campaign.target_donation) {\n            //Success campaign\n            makePayment(campaign.raised_amount, campaign.owner_address);\n            for (uint256 i = 1; i <= history.length; i++) {\n                history[i].is_transfered_to_owner = true;\n            }\n        } else {\n            require(\n            block.timestamp >= campaign.end_date,\n            \"Campaign end date not reached\"\n        );\n            // Fail campaign => Refund the donated amount to the donators\n            for (uint256 i = 1; i <= history.length; i++) {\n                makePayment(history[i].amount, history[i].donator_address);\n                history[i].is_refunded = true;\n            }\n        }\n        campaign.isActive = false;\n        emit CampaignClosed(campaign.id, campaign.title, msg.sender);\n    }\n\n    function getDonationHistory(uint256 _campaignId)\n        public\n        view\n        returns (Donation[] memory)\n    {\n        require(_campaignId <= campaignIdCounter, \"Invalid campaign ID\");\n        Donation[] memory donationHistory = new Donation[](donateCount);\n        for (uint256 i = 1; i <= donateCount; i++) {\n            if (donations[i].id == _campaignId) {\n                donationHistory[i] = donations[i];\n            }\n        }\n        return donationHistory;\n    }\n}\n",
  "sourcePath": "/Users/Earn/Desktop/blockchain/web/dapp/contracts/DonationSystem.sol",
  "compiler": {
    "name": "solc",
    "version": "0.8.19+commit.7dd6d404.Emscripten.clang"
  },
  "schemaVersion": "3.4.13",
  "updatedAt": "2023-05-20T03:53:06.551Z",
  "devdoc": {
    "kind": "dev",
    "methods": {},
    "version": 1
  },
  "userdoc": {
    "kind": "user",
    "methods": {},
    "version": 1
  }
}