{
  "contractName": "DonationSystem",
  "abi": [
    {
      "anonymous": false,
      "inputs": [
        {
          "indexed": true,
          "internalType": "uint256",
          "name": "campaignId",
          "type": "uint256"
        },
        {
          "indexed": false,
          "internalType": "string",
          "name": "title",
          "type": "string"
        },
        {
          "indexed": true,
          "internalType": "address",
          "name": "beneficiary",
          "type": "address"
        }
      ],
      "name": "CampaignClosed",
      "type": "event"
    },
    {
      "anonymous": false,
      "inputs": [
        {
          "indexed": true,
          "internalType": "uint256",
          "name": "campaignId",
          "type": "uint256"
        },
        {
          "indexed": false,
          "internalType": "string",
          "name": "title",
          "type": "string"
        },
        {
          "indexed": true,
          "internalType": "address",
          "name": "beneficiary",
          "type": "address"
        }
      ],
      "name": "CampaignCreated",
      "type": "event"
    },
    {
      "anonymous": false,
      "inputs": [
        {
          "indexed": true,
          "internalType": "uint256",
          "name": "campaignId",
          "type": "uint256"
        },
        {
          "indexed": true,
          "internalType": "address",
          "name": "userId",
          "type": "address"
        },
        {
          "indexed": false,
          "internalType": "uint256",
          "name": "amount",
          "type": "uint256"
        }
      ],
      "name": "DonationMade",
      "type": "event"
    },
    {
      "anonymous": false,
      "inputs": [
        {
          "indexed": true,
          "internalType": "address",
          "name": "userAddress",
          "type": "address"
        },
        {
          "indexed": true,
          "internalType": "uint256",
          "name": "userId",
          "type": "uint256"
        }
      ],
      "name": "UserRegistered",
      "type": "event"
    },
    {
      "inputs": [],
      "name": "campaignIdCounter",
      "outputs": [
        {
          "internalType": "uint256",
          "name": "",
          "type": "uint256"
        }
      ],
      "stateMutability": "view",
      "type": "function",
      "constant": true
    },
    {
      "inputs": [
        {
          "internalType": "uint256",
          "name": "",
          "type": "uint256"
        }
      ],
      "name": "campaigns",
      "outputs": [
        {
          "internalType": "uint256",
          "name": "id",
          "type": "uint256"
        },
        {
          "internalType": "string",
          "name": "title",
          "type": "string"
        },
        {
          "internalType": "string",
          "name": "description",
          "type": "string"
        },
        {
          "internalType": "string",
          "name": "goal",
          "type": "string"
        },
        {
          "internalType": "string",
          "name": "financial_needs",
          "type": "string"
        },
        {
          "internalType": "string",
          "name": "contribution",
          "type": "string"
        },
        {
          "internalType": "uint256",
          "name": "target_donation",
          "type": "uint256"
        },
        {
          "internalType": "uint256",
          "name": "raised_amount",
          "type": "uint256"
        },
        {
          "internalType": "uint256",
          "name": "start_date",
          "type": "uint256"
        },
        {
          "internalType": "uint256",
          "name": "end_date",
          "type": "uint256"
        },
        {
          "internalType": "bool",
          "name": "isActive",
          "type": "bool"
        },
        {
          "components": [
            {
              "internalType": "uint256",
              "name": "id",
              "type": "uint256"
            },
            {
              "internalType": "string",
              "name": "name",
              "type": "string"
            },
            {
              "internalType": "string",
              "name": "email",
              "type": "string"
            },
            {
              "internalType": "address",
              "name": "user_address",
              "type": "address"
            }
          ],
          "internalType": "struct UserRegistration.User",
          "name": "owner",
          "type": "tuple"
        }
      ],
      "stateMutability": "view",
      "type": "function",
      "constant": true
    },
    {
      "inputs": [
        {
          "internalType": "string",
          "name": "_title",
          "type": "string"
        },
        {
          "internalType": "string",
          "name": "_description",
          "type": "string"
        },
        {
          "internalType": "string",
          "name": "_goal",
          "type": "string"
        },
        {
          "internalType": "string",
          "name": "_financial_needs",
          "type": "string"
        },
        {
          "internalType": "string",
          "name": "_contribution",
          "type": "string"
        },
        {
          "internalType": "uint256",
          "name": "_targetDonation",
          "type": "uint256"
        },
        {
          "internalType": "uint256",
          "name": "_start_date",
          "type": "uint256"
        },
        {
          "internalType": "uint256",
          "name": "_end_date",
          "type": "uint256"
        }
      ],
      "name": "createCampaign",
      "outputs": [],
      "stateMutability": "nonpayable",
      "type": "function"
    },
    {
      "inputs": [],
      "name": "donateCount",
      "outputs": [
        {
          "internalType": "uint256",
          "name": "",
          "type": "uint256"
        }
      ],
      "stateMutability": "view",
      "type": "function",
      "constant": true
    },
    {
      "inputs": [
        {
          "internalType": "uint256",
          "name": "",
          "type": "uint256"
        }
      ],
      "name": "donations",
      "outputs": [
        {
          "internalType": "uint256",
          "name": "id",
          "type": "uint256"
        },
        {
          "internalType": "address",
          "name": "donator_address",
          "type": "address"
        },
        {
          "internalType": "uint256",
          "name": "campaignId",
          "type": "uint256"
        },
        {
          "internalType": "uint256",
          "name": "amount",
          "type": "uint256"
        },
        {
          "internalType": "bool",
          "name": "is_refunded",
          "type": "bool"
        },
        {
          "internalType": "bool",
          "name": "is_transfered_to_owner",
          "type": "bool"
        }
      ],
      "stateMutability": "view",
      "type": "function",
      "constant": true
    },
    {
      "inputs": [],
      "name": "getAllCampaigns",
      "outputs": [
        {
          "components": [
            {
              "internalType": "uint256",
              "name": "id",
              "type": "uint256"
            },
            {
              "internalType": "string",
              "name": "title",
              "type": "string"
            },
            {
              "internalType": "string",
              "name": "description",
              "type": "string"
            },
            {
              "internalType": "string",
              "name": "goal",
              "type": "string"
            },
            {
              "internalType": "string",
              "name": "financial_needs",
              "type": "string"
            },
            {
              "internalType": "string",
              "name": "contribution",
              "type": "string"
            },
            {
              "internalType": "uint256",
              "name": "target_donation",
              "type": "uint256"
            },
            {
              "internalType": "uint256",
              "name": "raised_amount",
              "type": "uint256"
            },
            {
              "internalType": "uint256",
              "name": "start_date",
              "type": "uint256"
            },
            {
              "internalType": "uint256",
              "name": "end_date",
              "type": "uint256"
            },
            {
              "internalType": "bool",
              "name": "isActive",
              "type": "bool"
            },
            {
              "components": [
                {
                  "internalType": "uint256",
                  "name": "id",
                  "type": "uint256"
                },
                {
                  "internalType": "string",
                  "name": "name",
                  "type": "string"
                },
                {
                  "internalType": "string",
                  "name": "email",
                  "type": "string"
                },
                {
                  "internalType": "address",
                  "name": "user_address",
                  "type": "address"
                }
              ],
              "internalType": "struct UserRegistration.User",
              "name": "owner",
              "type": "tuple"
            }
          ],
          "internalType": "struct CampaignRegistration.Campaign[]",
          "name": "",
          "type": "tuple[]"
        }
      ],
      "stateMutability": "view",
      "type": "function",
      "constant": true
    },
    {
      "inputs": [],
      "name": "getUserAddress",
      "outputs": [
        {
          "internalType": "address",
          "name": "",
          "type": "address"
        }
      ],
      "stateMutability": "view",
      "type": "function",
      "constant": true
    },
    {
      "inputs": [],
      "name": "isRegistered",
      "outputs": [
        {
          "internalType": "bool",
          "name": "",
          "type": "bool"
        }
      ],
      "stateMutability": "view",
      "type": "function",
      "constant": true
    },
    {
      "inputs": [
        {
          "internalType": "uint256",
          "name": "_amount",
          "type": "uint256"
        },
        {
          "internalType": "address",
          "name": "_recipant",
          "type": "address"
        }
      ],
      "name": "makePayment",
      "outputs": [],
      "stateMutability": "payable",
      "type": "function",
      "payable": true
    },
    {
      "inputs": [
        {
          "internalType": "string",
          "name": "_name",
          "type": "string"
        },
        {
          "internalType": "string",
          "name": "_email",
          "type": "string"
        }
      ],
      "name": "registerUser",
      "outputs": [],
      "stateMutability": "nonpayable",
      "type": "function"
    },
    {
      "inputs": [],
      "name": "userIdCounter",
      "outputs": [
        {
          "internalType": "uint256",
          "name": "",
          "type": "uint256"
        }
      ],
      "stateMutability": "view",
      "type": "function",
      "constant": true
    },
    {
      "inputs": [
        {
          "internalType": "address",
          "name": "",
          "type": "address"
        }
      ],
      "name": "users",
      "outputs": [
        {
          "internalType": "uint256",
          "name": "id",
          "type": "uint256"
        },
        {
          "internalType": "string",
          "name": "name",
          "type": "string"
        },
        {
          "internalType": "string",
          "name": "email",
          "type": "string"
        },
        {
          "internalType": "address",
          "name": "user_address",
          "type": "address"
        }
      ],
      "stateMutability": "view",
      "type": "function",
      "constant": true
    },
    {
      "inputs": [
        {
          "internalType": "uint256",
          "name": "_campaign_id",
          "type": "uint256"
        },
        {
          "internalType": "uint256",
          "name": "_amount",
          "type": "uint256"
        }
      ],
      "name": "donateToPool",
      "outputs": [],
      "stateMutability": "payable",
      "type": "function",
      "payable": true
    },
    {
      "inputs": [
        {
          "internalType": "uint256",
          "name": "_campaignId",
          "type": "uint256"
        }
      ],
      "name": "closeCampaign",
      "outputs": [],
      "stateMutability": "nonpayable",
      "type": "function"
    },
    {
      "inputs": [
        {
          "internalType": "uint256",
          "name": "_campaignId",
          "type": "uint256"
        }
      ],
      "name": "getDonationHistory",
      "outputs": [
        {
          "components": [
            {
              "internalType": "uint256",
              "name": "id",
              "type": "uint256"
            },
            {
              "internalType": "address",
              "name": "donator_address",
              "type": "address"
            },
            {
              "internalType": "uint256",
              "name": "campaignId",
              "type": "uint256"
            },
            {
              "internalType": "uint256",
              "name": "amount",
              "type": "uint256"
            },
            {
              "internalType": "bool",
              "name": "is_refunded",
              "type": "bool"
            },
            {
              "internalType": "bool",
              "name": "is_transfered_to_owner",
              "type": "bool"
            }
          ],
          "internalType": "struct DonationSystem.Donation[]",
          "name": "",
          "type": "tuple[]"
        }
      ],
      "stateMutability": "view",
      "type": "function",
      "constant": true
    }
  ],
  "bytecode": "0x608060405234801561001057600080fd5b50613c8d806100206000396000f3fe6080604052600436106100e85760003560e01c80632faba6ae1161008a578063a87430ba11610059578063a87430ba146102d3578063b0e1c1e114610313578063ebc3eee81461033c578063f8626af814610367576100e8565b80632faba6ae146102385780635e3de4ca146102635780637ff743811461028c57806386cdf604146102a8576100e8565b80632001cdfe116100c65780632001cdfe1461018957806322366844146101a55780632869a6e6146101d05780632e6186761461020d576100e8565b80630854e60d146100ed578063141961bc146101185780631d2e4afd14610160575b600080fd5b3480156100f957600080fd5b506101026103a9565b60405161010f91906122e3565b60405180910390f35b34801561012457600080fd5b5061013f600480360381019061013a919061233e565b6103af565b6040516101579c9b9a9998979695949392919061251a565b60405180910390f35b34801561016c57600080fd5b5061018760048036038101906101829190612733565b610852565b005b6101a3600480360381019061019e91906127ab565b610b26565b005b3480156101b157600080fd5b506101ba610e20565b6040516101c791906127eb565b60405180910390f35b3480156101dc57600080fd5b506101f760048036038101906101f2919061233e565b610e6c565b604051610204919061293f565b60405180910390f35b34801561021957600080fd5b5061022261103e565b60405161022f91906122e3565b60405180910390f35b34801561024457600080fd5b5061024d611044565b60405161025a91906122e3565b60405180910390f35b34801561026f57600080fd5b5061028a60048036038101906102859190612961565b61104a565b005b6102a660048036038101906102a19190612acf565b6116a8565b005b3480156102b457600080fd5b506102bd61179b565b6040516102ca9190612d62565b60405180910390f35b3480156102df57600080fd5b506102fa60048036038101906102f59190612d84565b611d50565b60405161030a9493929190612dc0565b60405180910390f35b34801561031f57600080fd5b5061033a6004803603810190610335919061233e565b611eb0565b005b34801561034857600080fd5b50610351612155565b60405161035e9190612e13565b60405180910390f35b34801561037357600080fd5b5061038e6004803603810190610389919061233e565b61215d565b6040516103a096959493929190612e2e565b60405180910390f35b60055481565b60026020528060005260406000206000915090508060000154908060010180546103d890612ebe565b80601f016020809104026020016040519081016040528092919081815260200182805461040490612ebe565b80156104515780601f1061042657610100808354040283529160200191610451565b820191906000526020600020905b81548152906001019060200180831161043457829003601f168201915b50505050509080600201805461046690612ebe565b80601f016020809104026020016040519081016040528092919081815260200182805461049290612ebe565b80156104df5780601f106104b4576101008083540402835291602001916104df565b820191906000526020600020905b8154815290600101906020018083116104c257829003601f168201915b5050505050908060030180546104f490612ebe565b80601f016020809104026020016040519081016040528092919081815260200182805461052090612ebe565b801561056d5780601f106105425761010080835404028352916020019161056d565b820191906000526020600020905b81548152906001019060200180831161055057829003601f168201915b50505050509080600401805461058290612ebe565b80601f01602080910402602001604051908101604052809291908181526020018280546105ae90612ebe565b80156105fb5780601f106105d0576101008083540402835291602001916105fb565b820191906000526020600020905b8154815290600101906020018083116105de57829003601f168201915b50505050509080600501805461061090612ebe565b80601f016020809104026020016040519081016040528092919081815260200182805461063c90612ebe565b80156106895780601f1061065e57610100808354040283529160200191610689565b820191906000526020600020905b81548152906001019060200180831161066c57829003601f168201915b50505050509080600601549080600701549080600801549080600901549080600a0160009054906101000a900460ff169080600b01604051806080016040529081600082015481526020016001820180546106e390612ebe565b80601f016020809104026020016040519081016040528092919081815260200182805461070f90612ebe565b801561075c5780601f106107315761010080835404028352916020019161075c565b820191906000526020600020905b81548152906001019060200180831161073f57829003601f168201915b5050505050815260200160028201805461077590612ebe565b80601f01602080910402602001604051908101604052809291908181526020018280546107a190612ebe565b80156107ee5780601f106107c3576101008083540402835291602001916107ee565b820191906000526020600020905b8154815290600101906020018083116107d157829003601f168201915b505050505081526020016003820160009054906101000a900473ffffffffffffffffffffffffffffffffffffffff1673ffffffffffffffffffffffffffffffffffffffff1673ffffffffffffffffffffffffffffffffffffffff168152505090508c565b600073ffffffffffffffffffffffffffffffffffffffff163373ffffffffffffffffffffffffffffffffffffffff16036108c1576040517f08c379a00000000000000000000000000000000000000000000000000000000081526004016108b890612f3b565b60405180910390fd5b60008060003373ffffffffffffffffffffffffffffffffffffffff1673ffffffffffffffffffffffffffffffffffffffff1681526020019081526020016000206000015414610945576040517f08c379a000000000000000000000000000000000000000000000000000000000815260040161093c90612fa7565b60405180910390fd5b6000825111610989576040517f08c379a000000000000000000000000000000000000000000000000000000000815260040161098090613013565b60405180910390fd5b60008151116109cd576040517f08c379a00000000000000000000000000000000000000000000000000000000081526004016109c49061307f565b60405180910390fd5b600160008154809291906109e0906130ce565b9190505550604051806080016040528060015481526020018381526020018281526020013373ffffffffffffffffffffffffffffffffffffffff168152506000803373ffffffffffffffffffffffffffffffffffffffff1673ffffffffffffffffffffffffffffffffffffffff168152602001908152602001600020600082015181600001556020820151816001019081610a7b91906132c2565b506040820151816002019081610a9191906132c2565b5060608201518160030160006101000a81548173ffffffffffffffffffffffffffffffffffffffff021916908373ffffffffffffffffffffffffffffffffffffffff1602179055509050506001543373ffffffffffffffffffffffffffffffffffffffff167fe29d35093005f4d575e1003753426b57a7f64378ba73332eef9c6ccc2b8decd660405160405180910390a35050565b60008111610b69576040517f08c379a0000000000000000000000000000000000000000000000000000000008152600401610b60906133e0565b60405180910390fd5b610b71610e20565b610bb0576040517f08c379a0000000000000000000000000000000000000000000000000000000008152600401610ba79061344c565b60405180910390fd5b803373ffffffffffffffffffffffffffffffffffffffff163111610c09576040517f08c379a0000000000000000000000000000000000000000000000000000000008152600401610c00906133e0565b60405180910390fd5b6000600260008481526020019081526020016000206000015411610c62576040517f08c379a0000000000000000000000000000000000000000000000000000000008152600401610c59906134b8565b60405180910390fd5b60056000815480929190610c75906130ce565b91905055506040518060c0016040528060055481526020013373ffffffffffffffffffffffffffffffffffffffff168152602001838152602001828152602001600015158152602001600015158152506004600060055481526020019081526020016000206000820151816000015560208201518160010160006101000a81548173ffffffffffffffffffffffffffffffffffffffff021916908373ffffffffffffffffffffffffffffffffffffffff160217905550604082015181600201556060820151816003015560808201518160040160006101000a81548160ff02191690831515021790555060a08201518160040160016101000a81548160ff02191690831515021790555090505080600260008481526020019081526020016000206007016000828254610da891906134d8565b92505081905550610dcd81733b46755b8db3ee2758620f084b9dbad65b5ac73b6116a8565b3373ffffffffffffffffffffffffffffffffffffffff16827fe555da28bdb778f65d22794d88927ebaeca03f7de9d1b7d39245bc8fb5ca078a83604051610e1491906122e3565b60405180910390a35050565b6000806000803373ffffffffffffffffffffffffffffffffffffffff1673ffffffffffffffffffffffffffffffffffffffff168152602001908152602001600020600001541415905090565b6060600354821115610eb3576040517f08c379a0000000000000000000000000000000000000000000000000000000008152600401610eaa90613558565b60405180910390fd5b600060055467ffffffffffffffff811115610ed157610ed0612608565b5b604051908082528060200260200182016040528015610f0a57816020015b610ef76121d3565b815260200190600190039081610eef5790505b5090506000600190505b6005548111611034578360046000838152602001908152602001600020600001540361102157600460008281526020019081526020016000206040518060c0016040529081600082015481526020016001820160009054906101000a900473ffffffffffffffffffffffffffffffffffffffff1673ffffffffffffffffffffffffffffffffffffffff1673ffffffffffffffffffffffffffffffffffffffff16815260200160028201548152602001600382015481526020016004820160009054906101000a900460ff161515151581526020016004820160019054906101000a900460ff16151515158152505082828151811061101557611014613578565b5b60200260200101819052505b808061102c906130ce565b915050610f14565b5080915050919050565b60035481565b60015481565b611052610e20565b611091576040517f08c379a0000000000000000000000000000000000000000000000000000000008152600401611088906135f3565b60405180910390fd5b60008851116110d5576040517f08c379a00000000000000000000000000000000000000000000000000000000081526004016110cc9061365f565b60405180910390fd5b6000875111611119576040517f08c379a0000000000000000000000000000000000000000000000000000000008152600401611110906136cb565b60405180910390fd5b600086511161115d576040517f08c379a000000000000000000000000000000000000000000000000000000000815260040161115490613737565b60405180910390fd5b60008551116111a1576040517f08c379a0000000000000000000000000000000000000000000000000000000008152600401611198906137c9565b60405180910390fd5b60008451116111e5576040517f08c379a00000000000000000000000000000000000000000000000000000000081526004016111dc90613835565b60405180910390fd5b60008311611228576040517f08c379a000000000000000000000000000000000000000000000000000000000815260040161121f906138a1565b60405180910390fd5b4282101561126b576040517f08c379a00000000000000000000000000000000000000000000000000000000081526004016112629061390d565b60405180910390fd5b8181116112ad576040517f08c379a00000000000000000000000000000000000000000000000000000000081526004016112a490613979565b60405180910390fd5b600360008154809291906112c0906130ce565b91905055506040518061018001604052806003548152602001898152602001888152602001878152602001868152602001858152602001848152602001600081526020018381526020018281526020016001151581526020016000803373ffffffffffffffffffffffffffffffffffffffff1673ffffffffffffffffffffffffffffffffffffffff1681526020019081526020016000206040518060800160405290816000820154815260200160018201805461137c90612ebe565b80601f01602080910402602001604051908101604052809291908181526020018280546113a890612ebe565b80156113f55780601f106113ca576101008083540402835291602001916113f5565b820191906000526020600020905b8154815290600101906020018083116113d857829003601f168201915b5050505050815260200160028201805461140e90612ebe565b80601f016020809104026020016040519081016040528092919081815260200182805461143a90612ebe565b80156114875780601f1061145c57610100808354040283529160200191611487565b820191906000526020600020905b81548152906001019060200180831161146a57829003601f168201915b505050505081526020016003820160009054906101000a900473ffffffffffffffffffffffffffffffffffffffff1673ffffffffffffffffffffffffffffffffffffffff1673ffffffffffffffffffffffffffffffffffffffff168152505081525060026000600354815260200190815260200160002060008201518160000155602082015181600101908161151d91906132c2565b50604082015181600201908161153391906132c2565b50606082015181600301908161154991906132c2565b50608082015181600401908161155f91906132c2565b5060a082015181600501908161157591906132c2565b5060c0820151816006015560e082015181600701556101008201518160080155610120820151816009015561014082015181600a0160006101000a81548160ff02191690831515021790555061016082015181600b016000820151816000015560208201518160010190816115ea91906132c2565b50604082015181600201908161160091906132c2565b5060608201518160030160006101000a81548173ffffffffffffffffffffffffffffffffffffffff021916908373ffffffffffffffffffffffffffffffffffffffff16021790555050509050503373ffffffffffffffffffffffffffffffffffffffff166003547f2750eae5c1c1d8000d7e674f15576524a1b7e24f4a33052e9d80ce3889556e398a6040516116969190613999565b60405180910390a35050505050505050565b8134146116ea576040517f08c379a00000000000000000000000000000000000000000000000000000000081526004016116e190613a07565b60405180910390fd5b60008173ffffffffffffffffffffffffffffffffffffffff168360405161171090613a58565b60006040518083038185875af1925050503d806000811461174d576040519150601f19603f3d011682016040523d82523d6000602084013e611752565b606091505b5050905080611796576040517f08c379a000000000000000000000000000000000000000000000000000000000815260040161178d90613ab9565b60405180910390fd5b505050565b60606000600354905060008167ffffffffffffffff8111156117c0576117bf612608565b5b6040519080825280602002602001820160405280156117f957816020015b6117e6612223565b8152602001906001900390816117de5790505b509050600080600190505b838111611d4657600060026000838152602001908152602001600020905080600a0160009054906101000a900460ff1615611d325780604051806101800160405290816000820154815260200160018201805461186090612ebe565b80601f016020809104026020016040519081016040528092919081815260200182805461188c90612ebe565b80156118d95780601f106118ae576101008083540402835291602001916118d9565b820191906000526020600020905b8154815290600101906020018083116118bc57829003601f168201915b505050505081526020016002820180546118f290612ebe565b80601f016020809104026020016040519081016040528092919081815260200182805461191e90612ebe565b801561196b5780601f106119405761010080835404028352916020019161196b565b820191906000526020600020905b81548152906001019060200180831161194e57829003601f168201915b5050505050815260200160038201805461198490612ebe565b80601f01602080910402602001604051908101604052809291908181526020018280546119b090612ebe565b80156119fd5780601f106119d2576101008083540402835291602001916119fd565b820191906000526020600020905b8154815290600101906020018083116119e057829003601f168201915b50505050508152602001600482018054611a1690612ebe565b80601f0160208091040260200160405190810160405280929190818152602001828054611a4290612ebe565b8015611a8f5780601f10611a6457610100808354040283529160200191611a8f565b820191906000526020600020905b815481529060010190602001808311611a7257829003601f168201915b50505050508152602001600582018054611aa890612ebe565b80601f0160208091040260200160405190810160405280929190818152602001828054611ad490612ebe565b8015611b215780601f10611af657610100808354040283529160200191611b21565b820191906000526020600020905b815481529060010190602001808311611b0457829003601f168201915b5050505050815260200160068201548152602001600782015481526020016008820154815260200160098201548152602001600a820160009054906101000a900460ff16151515158152602001600b820160405180608001604052908160008201548152602001600182018054611b9790612ebe565b80601f0160208091040260200160405190810160405280929190818152602001828054611bc390612ebe565b8015611c105780601f10611be557610100808354040283529160200191611c10565b820191906000526020600020905b815481529060010190602001808311611bf357829003601f168201915b50505050508152602001600282018054611c2990612ebe565b80601f0160208091040260200160405190810160405280929190818152602001828054611c5590612ebe565b8015611ca25780601f10611c7757610100808354040283529160200191611ca2565b820191906000526020600020905b815481529060010190602001808311611c8557829003601f168201915b505050505081526020016003820160009054906101000a900473ffffffffffffffffffffffffffffffffffffffff1673ffffffffffffffffffffffffffffffffffffffff1673ffffffffffffffffffffffffffffffffffffffff168152505081525050848481518110611d1857611d17613578565b5b60200260200101819052508280611d2e906130ce565b9350505b508080611d3e906130ce565b915050611804565b5081935050505090565b6000602052806000526040600020600091509050806000015490806001018054611d7990612ebe565b80601f0160208091040260200160405190810160405280929190818152602001828054611da590612ebe565b8015611df25780601f10611dc757610100808354040283529160200191611df2565b820191906000526020600020905b815481529060010190602001808311611dd557829003601f168201915b505050505090806002018054611e0790612ebe565b80601f0160208091040260200160405190810160405280929190818152602001828054611e3390612ebe565b8015611e805780601f10611e5557610100808354040283529160200191611e80565b820191906000526020600020905b815481529060010190602001808311611e6357829003601f168201915b5050505050908060030160009054906101000a900473ffffffffffffffffffffffffffffffffffffffff16905084565b600354811115611ef5576040517f08c379a0000000000000000000000000000000000000000000000000000000008152600401611eec90613558565b60405180910390fd5b600060026000838152602001908152602001600020905080600a0160009054906101000a900460ff16611f5d576040517f08c379a0000000000000000000000000000000000000000000000000000000008152600401611f5490613b25565b60405180910390fd5b6000611f6883610e6c565b9050816006015482600701541061200157611fae826007015483600b0160030160009054906101000a900473ffffffffffffffffffffffffffffffffffffffff166116a8565b6000600190505b81518111611ffb576001828281518110611fd257611fd1613578565b5b602002602001015160a00190151590811515815250508080611ff3906130ce565b915050611fb5565b506120dd565b8160090154421015612048576040517f08c379a000000000000000000000000000000000000000000000000000000000815260040161203f90613b91565b60405180910390fd5b6000600190505b815181116120db5761209d82828151811061206d5761206c613578565b5b60200260200101516060015183838151811061208c5761208b613578565b5b6020026020010151602001516116a8565b60018282815181106120b2576120b1613578565b5b6020026020010151608001901515908115158152505080806120d3906130ce565b91505061204f565b505b600082600a0160006101000a81548160ff0219169083151502179055503373ffffffffffffffffffffffffffffffffffffffff1682600001547f1ad84f5c06fab0f426ef9b735fe75d068d045a9fc3f27d9d8d7386872fa83456846001016040516121489190613c35565b60405180910390a3505050565b600033905090565b60046020528060005260406000206000915090508060000154908060010160009054906101000a900473ffffffffffffffffffffffffffffffffffffffff16908060020154908060030154908060040160009054906101000a900460ff16908060040160019054906101000a900460ff16905086565b6040518060c0016040528060008152602001600073ffffffffffffffffffffffffffffffffffffffff16815260200160008152602001600081526020016000151581526020016000151581525090565b6040518061018001604052806000815260200160608152602001606081526020016060815260200160608152602001606081526020016000815260200160008152602001600081526020016000815260200160001515815260200161228661228c565b81525090565b6040518060800160405280600081526020016060815260200160608152602001600073ffffffffffffffffffffffffffffffffffffffff1681525090565b6000819050919050565b6122dd816122ca565b82525050565b60006020820190506122f860008301846122d4565b92915050565b6000604051905090565b600080fd5b600080fd5b61231b816122ca565b811461232657600080fd5b50565b60008135905061233881612312565b92915050565b60006020828403121561235457612353612308565b5b600061236284828501612329565b91505092915050565b600081519050919050565b600082825260208201905092915050565b60005b838110156123a557808201518184015260208101905061238a565b60008484015250505050565b6000601f19601f8301169050919050565b60006123cd8261236b565b6123d78185612376565b93506123e7818560208601612387565b6123f0816123b1565b840191505092915050565b60008115159050919050565b612410816123fb565b82525050565b61241f816122ca565b82525050565b600082825260208201905092915050565b60006124418261236b565b61244b8185612425565b935061245b818560208601612387565b612464816123b1565b840191505092915050565b600073ffffffffffffffffffffffffffffffffffffffff82169050919050565b600061249a8261246f565b9050919050565b6124aa8161248f565b82525050565b60006080830160008301516124c86000860182612416565b50602083015184820360208601526124e08282612436565b915050604083015184820360408601526124fa8282612436565b915050606083015161250f60608601826124a1565b508091505092915050565b600061018082019050612530600083018f6122d4565b8181036020830152612542818e6123c2565b90508181036040830152612556818d6123c2565b9050818103606083015261256a818c6123c2565b9050818103608083015261257e818b6123c2565b905081810360a0830152612592818a6123c2565b90506125a160c08301896122d4565b6125ae60e08301886122d4565b6125bc6101008301876122d4565b6125ca6101208301866122d4565b6125d8610140830185612407565b8181036101608301526125eb81846124b0565b90509d9c50505050505050505050505050565b600080fd5b600080fd5b7f4e487b7100000000000000000000000000000000000000000000000000000000600052604160045260246000fd5b612640826123b1565b810181811067ffffffffffffffff8211171561265f5761265e612608565b5b80604052505050565b60006126726122fe565b905061267e8282612637565b919050565b600067ffffffffffffffff82111561269e5761269d612608565b5b6126a7826123b1565b9050602081019050919050565b82818337600083830152505050565b60006126d66126d184612683565b612668565b9050828152602081018484840111156126f2576126f1612603565b5b6126fd8482856126b4565b509392505050565b600082601f83011261271a576127196125fe565b5b813561272a8482602086016126c3565b91505092915050565b6000806040838503121561274a57612749612308565b5b600083013567ffffffffffffffff8111156127685761276761230d565b5b61277485828601612705565b925050602083013567ffffffffffffffff8111156127955761279461230d565b5b6127a185828601612705565b9150509250929050565b600080604083850312156127c2576127c1612308565b5b60006127d085828601612329565b92505060206127e185828601612329565b9150509250929050565b60006020820190506128006000830184612407565b92915050565b600081519050919050565b600082825260208201905092915050565b6000819050602082019050919050565b61283b816123fb565b82525050565b60c0820160008201516128576000850182612416565b50602082015161286a60208501826124a1565b50604082015161287d6040850182612416565b5060608201516128906060850182612416565b5060808201516128a36080850182612832565b5060a08201516128b660a0850182612832565b50505050565b60006128c88383612841565b60c08301905092915050565b6000602082019050919050565b60006128ec82612806565b6128f68185612811565b935061290183612822565b8060005b8381101561293257815161291988826128bc565b9750612924836128d4565b925050600181019050612905565b5085935050505092915050565b6000602082019050818103600083015261295981846128e1565b905092915050565b600080600080600080600080610100898b03121561298257612981612308565b5b600089013567ffffffffffffffff8111156129a05761299f61230d565b5b6129ac8b828c01612705565b985050602089013567ffffffffffffffff8111156129cd576129cc61230d565b5b6129d98b828c01612705565b975050604089013567ffffffffffffffff8111156129fa576129f961230d565b5b612a068b828c01612705565b965050606089013567ffffffffffffffff811115612a2757612a2661230d565b5b612a338b828c01612705565b955050608089013567ffffffffffffffff811115612a5457612a5361230d565b5b612a608b828c01612705565b94505060a0612a718b828c01612329565b93505060c0612a828b828c01612329565b92505060e0612a938b828c01612329565b9150509295985092959890939650565b612aac8161248f565b8114612ab757600080fd5b50565b600081359050612ac981612aa3565b92915050565b60008060408385031215612ae657612ae5612308565b5b6000612af485828601612329565b9250506020612b0585828601612aba565b9150509250929050565b600081519050919050565b600082825260208201905092915050565b6000819050602082019050919050565b6000608083016000830151612b536000860182612416565b5060208301518482036020860152612b6b8282612436565b91505060408301518482036040860152612b858282612436565b9150506060830151612b9a60608601826124a1565b508091505092915050565b600061018083016000830151612bbe6000860182612416565b5060208301518482036020860152612bd68282612436565b91505060408301518482036040860152612bf08282612436565b91505060608301518482036060860152612c0a8282612436565b91505060808301518482036080860152612c248282612436565b91505060a083015184820360a0860152612c3e8282612436565b91505060c0830151612c5360c0860182612416565b5060e0830151612c6660e0860182612416565b50610100830151612c7b610100860182612416565b50610120830151612c90610120860182612416565b50610140830151612ca5610140860182612832565b50610160830151848203610160860152612cbf8282612b3b565b9150508091505092915050565b6000612cd88383612ba5565b905092915050565b6000602082019050919050565b6000612cf882612b0f565b612d028185612b1a565b935083602082028501612d1485612b2b565b8060005b85811015612d505784840389528151612d318582612ccc565b9450612d3c83612ce0565b925060208a01995050600181019050612d18565b50829750879550505050505092915050565b60006020820190508181036000830152612d7c8184612ced565b905092915050565b600060208284031215612d9a57612d99612308565b5b6000612da884828501612aba565b91505092915050565b612dba8161248f565b82525050565b6000608082019050612dd560008301876122d4565b8181036020830152612de781866123c2565b90508181036040830152612dfb81856123c2565b9050612e0a6060830184612db1565b95945050505050565b6000602082019050612e286000830184612db1565b92915050565b600060c082019050612e4360008301896122d4565b612e506020830188612db1565b612e5d60408301876122d4565b612e6a60608301866122d4565b612e776080830185612407565b612e8460a0830184612407565b979650505050505050565b7f4e487b7100000000000000000000000000000000000000000000000000000000600052602260045260246000fd5b60006002820490506001821680612ed657607f821691505b602082108103612ee957612ee8612e8f565b5b50919050565b7f496e76616c696420757365722061646472657373000000000000000000000000600082015250565b6000612f25601483612376565b9150612f3082612eef565b602082019050919050565b60006020820190508181036000830152612f5481612f18565b9050919050565b7f5573657220616c72656164792072656769737465726564000000000000000000600082015250565b6000612f91601783612376565b9150612f9c82612f5b565b602082019050919050565b60006020820190508181036000830152612fc081612f84565b9050919050565b7f4e616d6520697320726571756972656400000000000000000000000000000000600082015250565b6000612ffd601083612376565b915061300882612fc7565b602082019050919050565b6000602082019050818103600083015261302c81612ff0565b9050919050565b7f456d61696c206973207265717569726564000000000000000000000000000000600082015250565b6000613069601183612376565b915061307482613033565b602082019050919050565b600060208201905081810360008301526130988161305c565b9050919050565b7f4e487b7100000000000000000000000000000000000000000000000000000000600052601160045260246000fd5b60006130d9826122ca565b91507fffffffffffffffffffffffffffffffffffffffffffffffffffffffffffffffff820361310b5761310a61309f565b5b600182019050919050565b60008190508160005260206000209050919050565b60006020601f8301049050919050565b600082821b905092915050565b6000600883026131787fffffffffffffffffffffffffffffffffffffffffffffffffffffffffffffffff8261313b565b613182868361313b565b95508019841693508086168417925050509392505050565b6000819050919050565b60006131bf6131ba6131b5846122ca565b61319a565b6122ca565b9050919050565b6000819050919050565b6131d9836131a4565b6131ed6131e5826131c6565b848454613148565b825550505050565b600090565b6132026131f5565b61320d8184846131d0565b505050565b5b81811015613231576132266000826131fa565b600181019050613213565b5050565b601f8211156132765761324781613116565b6132508461312b565b8101602085101561325f578190505b61327361326b8561312b565b830182613212565b50505b505050565b600082821c905092915050565b60006132996000198460080261327b565b1980831691505092915050565b60006132b28383613288565b9150826002028217905092915050565b6132cb8261236b565b67ffffffffffffffff8111156132e4576132e3612608565b5b6132ee8254612ebe565b6132f9828285613235565b600060209050601f83116001811461332c576000841561331a578287015190505b61332485826132a6565b86555061338c565b601f19841661333a86613116565b60005b828110156133625784890151825560018201915060208501945060208101905061333d565b8683101561337f578489015161337b601f891682613288565b8355505b6001600288020188555050505b505050505050565b7f416d6f756e74206d7573742062652067726561746572207468616e207a65726f600082015250565b60006133ca602083612376565b91506133d582613394565b602082019050919050565b600060208201905081810360008301526133f9816133bd565b9050919050565b7f55736572206e6f74207265676973746572656400000000000000000000000000600082015250565b6000613436601383612376565b915061344182613400565b602082019050919050565b6000602082019050818103600083015261346581613429565b9050919050565b7f43616d706169676e20646f6573206e6f74206578697374000000000000000000600082015250565b60006134a2601783612376565b91506134ad8261346c565b602082019050919050565b600060208201905081810360008301526134d181613495565b9050919050565b60006134e3826122ca565b91506134ee836122ca565b92508282019050808211156135065761350561309f565b5b92915050565b7f496e76616c69642063616d706169676e20494400000000000000000000000000600082015250565b6000613542601383612376565b915061354d8261350c565b602082019050919050565b6000602082019050818103600083015261357181613535565b9050919050565b7f4e487b7100000000000000000000000000000000000000000000000000000000600052603260045260246000fd5b7f556e617574686f72697a65640000000000000000000000000000000000000000600082015250565b60006135dd600c83612376565b91506135e8826135a7565b602082019050919050565b6000602082019050818103600083015261360c816135d0565b9050919050565b7f5469746c65206669656c64206973207265717569726564000000000000000000600082015250565b6000613649601783612376565b915061365482613613565b602082019050919050565b600060208201905081810360008301526136788161363c565b9050919050565b7f4465736372697074696f6e206669656c64206973207265717569726564000000600082015250565b60006136b5601d83612376565b91506136c08261367f565b602082019050919050565b600060208201905081810360008301526136e4816136a8565b9050919050565b7f476f616c206669656c6420697320726571756972656400000000000000000000600082015250565b6000613721601683612376565b915061372c826136eb565b602082019050919050565b6000602082019050818103600083015261375081613714565b9050919050565b7f46696e616e6369616c206e6565647320696e666f6d6174696f6e20697320726560008201527f7175697265640000000000000000000000000000000000000000000000000000602082015250565b60006137b3602683612376565b91506137be82613757565b604082019050919050565b600060208201905081810360008301526137e2816137a6565b9050919050565b7f436f6e747269627574696f6e206669656c642069732072657175697265640000600082015250565b600061381f601e83612376565b915061382a826137e9565b602082019050919050565b6000602082019050818103600083015261384e81613812565b9050919050565b7f54617267657420646f6e6174696f6e2069732072657175697265640000000000600082015250565b600061388b601b83612376565b915061389682613855565b602082019050919050565b600060208201905081810360008301526138ba8161387e565b9050919050565b7f53746172742064617465206973206c657373207468616e20656e642064617465600082015250565b60006138f7602083612376565b9150613902826138c1565b602082019050919050565b60006020820190508181036000830152613926816138ea565b9050919050565b7f456e642064617465206973206c657373207468616e2073746172742064617465600082015250565b6000613963602083612376565b915061396e8261392d565b602082019050919050565b6000602082019050818103600083015261399281613956565b9050919050565b600060208201905081810360008301526139b381846123c2565b905092915050565b7f496e76616c6964205061796d656e740000000000000000000000000000000000600082015250565b60006139f1600f83612376565b91506139fc826139bb565b602082019050919050565b60006020820190508181036000830152613a20816139e4565b9050919050565b600081905092915050565b50565b6000613a42600083613a27565b9150613a4d82613a32565b600082019050919050565b6000613a6382613a35565b9150819050919050565b7f5061796d656e74206661696c6564000000000000000000000000000000000000600082015250565b6000613aa3600e83612376565b9150613aae82613a6d565b602082019050919050565b60006020820190508181036000830152613ad281613a96565b9050919050565b7f43616d706169676e206973206e6f742061637469766500000000000000000000600082015250565b6000613b0f601683612376565b9150613b1a82613ad9565b602082019050919050565b60006020820190508181036000830152613b3e81613b02565b9050919050565b7f43616d706169676e20656e642064617465206e6f742072656163686564000000600082015250565b6000613b7b601d83612376565b9150613b8682613b45565b602082019050919050565b60006020820190508181036000830152613baa81613b6e565b9050919050565b60008154613bbe81612ebe565b613bc88186612376565b94506001821660008114613be35760018114613bf957613c2c565b60ff198316865281151560200286019350613c2c565b613c0285613116565b60005b83811015613c2457815481890152600182019150602081019050613c05565b808801955050505b50505092915050565b60006020820190508181036000830152613c4f8184613bb1565b90509291505056fea2646970667358221220e5cf83d2fde4d8987002e53655e84362706cb4a125d6e228611982ae443d51d764736f6c63430008130033",
  "immutableReferences": {},
  "source": "// SPDX-License-Identifier: MIT\n\npragma solidity ^0.8.0;\n\nimport \"./CampaignRegistration.sol\";\nimport \"./PaymentSystem.sol\";\n\ncontract DonationSystem is CampaignRegistration, PaymentSystem {\n    struct Donation {\n        uint256 id;\n        address donator_address;\n        uint256 campaignId;\n        uint256 amount;\n        bool is_refunded;\n        bool is_transfered_to_owner;\n    }\n\n    mapping(uint256 => Donation) public donations;\n    uint256 public donateCount;\n    address private constant DONATION_POOL =\n        0x3b46755B8DB3EE2758620f084b9dBAd65b5Ac73b;\n    event DonationMade(\n        uint256 indexed campaignId,\n        address indexed userId,\n        uint256 amount\n    );\n\n    function donateToPool(\n        uint256 _campaign_id,\n        uint256 _amount\n    ) public payable {\n        require(_amount > 0, \"Amount must be greater than zero\");\n        require(isRegistered(), \"User not registered\");\n        require(\n            msg.sender.balance > _amount,\n            \"Amount must be greater than zero\"\n        );\n        require(campaigns[_campaign_id].id > 0, \"Campaign does not exist\");\n\n        donateCount++;\n\n        donations[donateCount] = Donation({\n            id: donateCount,\n            donator_address: msg.sender,\n            campaignId: _campaign_id,\n            amount: _amount,\n            is_refunded: false,\n            is_transfered_to_owner: false\n        });\n\n        campaigns[_campaign_id].raised_amount += _amount;\n        makePayment(_amount, DONATION_POOL);\n        emit DonationMade(_campaign_id, msg.sender, _amount);\n    }\n\n    function closeCampaign(uint256 _campaignId) public {\n        require(_campaignId <= campaignIdCounter, \"Invalid campaign ID\");\n        Campaign storage campaign = campaigns[_campaignId];\n        require(campaign.isActive, \"Campaign is not active\");\n\n        Donation[] memory history = getDonationHistory(_campaignId);\n        if (campaign.raised_amount >= campaign.target_donation) {\n            //Success campaign\n            makePayment(campaign.raised_amount, campaign.owner.user_address);\n            for (uint256 i = 1; i <= history.length; i++) {\n                history[i].is_transfered_to_owner = true;\n            }\n        } else {\n            require(\n                block.timestamp >= campaign.end_date,\n                \"Campaign end date not reached\"\n            );\n            // Fail campaign => Refund the donated amount to the donators\n            for (uint256 i = 1; i <= history.length; i++) {\n                makePayment(history[i].amount, history[i].donator_address);\n                history[i].is_refunded = true;\n            }\n        }\n        campaign.isActive = false;\n        emit CampaignClosed(campaign.id, campaign.title, msg.sender);\n    }\n\n    function getDonationHistory(\n        uint256 _campaignId\n    ) public view returns (Donation[] memory) {\n        require(_campaignId <= campaignIdCounter, \"Invalid campaign ID\");\n        Donation[] memory donationHistory = new Donation[](donateCount);\n        for (uint256 i = 1; i <= donateCount; i++) {\n            if (donations[i].id == _campaignId) {\n                donationHistory[i] = donations[i];\n            }\n        }\n        return donationHistory;\n    }\n}\n",
  "sourcePath": "/Users/Earn/Desktop/blockchain/web/dapp/contracts/DonationSystem.sol",
  "compiler": {
    "name": "solc",
    "version": "0.8.19+commit.7dd6d404.Emscripten.clang"
  },
  "schemaVersion": "3.4.13",
  "updatedAt": "2023-05-22T16:13:47.016Z",
  "networkType": "ethereum",
  "devdoc": {
    "kind": "dev",
    "methods": {},
    "version": 1
  },
  "userdoc": {
    "kind": "user",
    "methods": {},
    "version": 1
  }
}