{
  "contractName": "PaymentSystem",
  "abi": [
    {
      "inputs": [
        {
          "internalType": "uint256",
          "name": "_amount",
          "type": "uint256"
        },
        {
          "internalType": "address",
          "name": "_recipant",
          "type": "address"
        }
      ],
      "name": "makePayment",
      "outputs": [],
      "stateMutability": "payable",
      "type": "function",
      "payable": true
    }
  ],
  "bytecode": "0x608060405234801561001057600080fd5b50610370806100206000396000f3fe60806040526004361061001e5760003560e01c80637ff7438114610023575b600080fd5b61003d600480360381019061003891906101cb565b61003f565b005b813414610081576040517f08c379a000000000000000000000000000000000000000000000000000000000815260040161007890610268565b60405180910390fd5b60008173ffffffffffffffffffffffffffffffffffffffff16836040516100a7906102b9565b60006040518083038185875af1925050503d80600081146100e4576040519150601f19603f3d011682016040523d82523d6000602084013e6100e9565b606091505b505090508061012d576040517f08c379a00000000000000000000000000000000000000000000000000000000081526004016101249061031a565b60405180910390fd5b505050565b600080fd5b6000819050919050565b61014a81610137565b811461015557600080fd5b50565b60008135905061016781610141565b92915050565b600073ffffffffffffffffffffffffffffffffffffffff82169050919050565b60006101988261016d565b9050919050565b6101a88161018d565b81146101b357600080fd5b50565b6000813590506101c58161019f565b92915050565b600080604083850312156101e2576101e1610132565b5b60006101f085828601610158565b9250506020610201858286016101b6565b9150509250929050565b600082825260208201905092915050565b7f496e76616c6964205061796d656e740000000000000000000000000000000000600082015250565b6000610252600f8361020b565b915061025d8261021c565b602082019050919050565b6000602082019050818103600083015261028181610245565b9050919050565b600081905092915050565b50565b60006102a3600083610288565b91506102ae82610293565b600082019050919050565b60006102c482610296565b9150819050919050565b7f5061796d656e74206661696c6564000000000000000000000000000000000000600082015250565b6000610304600e8361020b565b915061030f826102ce565b602082019050919050565b60006020820190508181036000830152610333816102f7565b905091905056fea264697066735822122003ade38991d7b7d264814a79d7789e935bd7fa0b993778346b5ec85d44968e0164736f6c63430008130033",
  "immutableReferences": {},
  "source": "// SPDX-License-Identifier: MIT\n\npragma solidity ^0.8.0;\n\ncontract PaymentSystem {\n    function makePayment(uint256 _amount, address _recipant) public payable {\n        require(msg.value == _amount, \"Invalid Payment\");\n        (bool success, ) = _recipant.call{value: _amount}(\"\");\n        require(success, \"Payment failed\");\n    }\n}\n",
  "sourcePath": "/Users/Earn/Desktop/blockchain/web/dapp/contracts/PaymentSystem.sol",
  "compiler": {
    "name": "solc",
    "version": "0.8.19+commit.7dd6d404.Emscripten.clang"
  },
  "schemaVersion": "3.4.13",
  "updatedAt": "2023-05-22T16:13:47.024Z",
  "networkType": "ethereum",
  "devdoc": {
    "kind": "dev",
    "methods": {},
    "version": 1
  },
  "userdoc": {
    "kind": "user",
    "methods": {},
    "version": 1
  }
}