{
  "contractName": "UserRegistration",
  "abi": [
    {
      "anonymous": false,
      "inputs": [
        {
          "indexed": true,
          "internalType": "address",
          "name": "userAddress",
          "type": "address"
        },
        {
          "indexed": true,
          "internalType": "uint256",
          "name": "userId",
          "type": "uint256"
        }
      ],
      "name": "UserRegistered",
      "type": "event"
    },
    {
      "inputs": [],
      "name": "userIdCounter",
      "outputs": [
        {
          "internalType": "uint256",
          "name": "",
          "type": "uint256"
        }
      ],
      "stateMutability": "view",
      "type": "function",
      "constant": true
    },
    {
      "inputs": [
        {
          "internalType": "address",
          "name": "",
          "type": "address"
        }
      ],
      "name": "users",
      "outputs": [
        {
          "internalType": "uint256",
          "name": "id",
          "type": "uint256"
        },
        {
          "internalType": "string",
          "name": "name",
          "type": "string"
        },
        {
          "internalType": "string",
          "name": "email",
          "type": "string"
        },
        {
          "internalType": "address",
          "name": "user_address",
          "type": "address"
        }
      ],
      "stateMutability": "view",
      "type": "function",
      "constant": true
    },
    {
      "inputs": [
        {
          "internalType": "string",
          "name": "_name",
          "type": "string"
        },
        {
          "internalType": "string",
          "name": "_email",
          "type": "string"
        }
      ],
      "name": "registerUser",
      "outputs": [],
      "stateMutability": "nonpayable",
      "type": "function"
    },
    {
      "inputs": [],
      "name": "getUserAddress",
      "outputs": [
        {
          "internalType": "address",
          "name": "",
          "type": "address"
        }
      ],
      "stateMutability": "view",
      "type": "function",
      "constant": true
    },
    {
      "inputs": [],
      "name": "isRegistered",
      "outputs": [
        {
          "internalType": "bool",
          "name": "",
          "type": "bool"
        }
      ],
      "stateMutability": "view",
      "type": "function",
      "constant": true
    }
  ],
  "bytecode": "0x608060405234801561001057600080fd5b50610e91806100206000396000f3fe608060405234801561001057600080fd5b50600436106100575760003560e01c80631d2e4afd1461005c57806322366844146100785780632faba6ae14610096578063a87430ba146100b4578063ebc3eee8146100e7575b600080fd5b610076600480360381019061007191906106ed565b610105565b005b6100806103d9565b60405161008d9190610780565b60405180910390f35b61009e610425565b6040516100ab91906107b4565b60405180910390f35b6100ce60048036038101906100c9919061082d565b61042b565b6040516100de94939291906108e8565b60405180910390f35b6100ef61058b565b6040516100fc919061093b565b60405180910390f35b600073ffffffffffffffffffffffffffffffffffffffff163373ffffffffffffffffffffffffffffffffffffffff1603610174576040517f08c379a000000000000000000000000000000000000000000000000000000000815260040161016b906109a2565b60405180910390fd5b60008060003373ffffffffffffffffffffffffffffffffffffffff1673ffffffffffffffffffffffffffffffffffffffff16815260200190815260200160002060000154146101f8576040517f08c379a00000000000000000000000000000000000000000000000000000000081526004016101ef90610a0e565b60405180910390fd5b600082511161023c576040517f08c379a000000000000000000000000000000000000000000000000000000000815260040161023390610a7a565b60405180910390fd5b6000815111610280576040517f08c379a000000000000000000000000000000000000000000000000000000000815260040161027790610ae6565b60405180910390fd5b6001600081548092919061029390610b35565b9190505550604051806080016040528060015481526020018381526020018281526020013373ffffffffffffffffffffffffffffffffffffffff168152506000803373ffffffffffffffffffffffffffffffffffffffff1673ffffffffffffffffffffffffffffffffffffffff16815260200190815260200160002060008201518160000155602082015181600101908161032e9190610d89565b5060408201518160020190816103449190610d89565b5060608201518160030160006101000a81548173ffffffffffffffffffffffffffffffffffffffff021916908373ffffffffffffffffffffffffffffffffffffffff1602179055509050506001543373ffffffffffffffffffffffffffffffffffffffff167fe29d35093005f4d575e1003753426b57a7f64378ba73332eef9c6ccc2b8decd660405160405180910390a35050565b6000806000803373ffffffffffffffffffffffffffffffffffffffff1673ffffffffffffffffffffffffffffffffffffffff168152602001908152602001600020600001541415905090565b60015481565b600060205280600052604060002060009150905080600001549080600101805461045490610bac565b80601f016020809104026020016040519081016040528092919081815260200182805461048090610bac565b80156104cd5780601f106104a2576101008083540402835291602001916104cd565b820191906000526020600020905b8154815290600101906020018083116104b057829003601f168201915b5050505050908060020180546104e290610bac565b80601f016020809104026020016040519081016040528092919081815260200182805461050e90610bac565b801561055b5780601f106105305761010080835404028352916020019161055b565b820191906000526020600020905b81548152906001019060200180831161053e57829003601f168201915b5050505050908060030160009054906101000a900473ffffffffffffffffffffffffffffffffffffffff16905084565b600033905090565b6000604051905090565b600080fd5b600080fd5b600080fd5b600080fd5b6000601f19601f8301169050919050565b7f4e487b7100000000000000000000000000000000000000000000000000000000600052604160045260246000fd5b6105fa826105b1565b810181811067ffffffffffffffff82111715610619576106186105c2565b5b80604052505050565b600061062c610593565b905061063882826105f1565b919050565b600067ffffffffffffffff821115610658576106576105c2565b5b610661826105b1565b9050602081019050919050565b82818337600083830152505050565b600061069061068b8461063d565b610622565b9050828152602081018484840111156106ac576106ab6105ac565b5b6106b784828561066e565b509392505050565b600082601f8301126106d4576106d36105a7565b5b81356106e484826020860161067d565b91505092915050565b600080604083850312156107045761070361059d565b5b600083013567ffffffffffffffff811115610722576107216105a2565b5b61072e858286016106bf565b925050602083013567ffffffffffffffff81111561074f5761074e6105a2565b5b61075b858286016106bf565b9150509250929050565b60008115159050919050565b61077a81610765565b82525050565b60006020820190506107956000830184610771565b92915050565b6000819050919050565b6107ae8161079b565b82525050565b60006020820190506107c960008301846107a5565b92915050565b600073ffffffffffffffffffffffffffffffffffffffff82169050919050565b60006107fa826107cf565b9050919050565b61080a816107ef565b811461081557600080fd5b50565b60008135905061082781610801565b92915050565b6000602082840312156108435761084261059d565b5b600061085184828501610818565b91505092915050565b600081519050919050565b600082825260208201905092915050565b60005b83811015610894578082015181840152602081019050610879565b60008484015250505050565b60006108ab8261085a565b6108b58185610865565b93506108c5818560208601610876565b6108ce816105b1565b840191505092915050565b6108e2816107ef565b82525050565b60006080820190506108fd60008301876107a5565b818103602083015261090f81866108a0565b9050818103604083015261092381856108a0565b905061093260608301846108d9565b95945050505050565b600060208201905061095060008301846108d9565b92915050565b7f496e76616c696420757365722061646472657373000000000000000000000000600082015250565b600061098c601483610865565b915061099782610956565b602082019050919050565b600060208201905081810360008301526109bb8161097f565b9050919050565b7f5573657220616c72656164792072656769737465726564000000000000000000600082015250565b60006109f8601783610865565b9150610a03826109c2565b602082019050919050565b60006020820190508181036000830152610a27816109eb565b9050919050565b7f4e616d6520697320726571756972656400000000000000000000000000000000600082015250565b6000610a64601083610865565b9150610a6f82610a2e565b602082019050919050565b60006020820190508181036000830152610a9381610a57565b9050919050565b7f456d61696c206973207265717569726564000000000000000000000000000000600082015250565b6000610ad0601183610865565b9150610adb82610a9a565b602082019050919050565b60006020820190508181036000830152610aff81610ac3565b9050919050565b7f4e487b7100000000000000000000000000000000000000000000000000000000600052601160045260246000fd5b6000610b408261079b565b91507fffffffffffffffffffffffffffffffffffffffffffffffffffffffffffffffff8203610b7257610b71610b06565b5b600182019050919050565b7f4e487b7100000000000000000000000000000000000000000000000000000000600052602260045260246000fd5b60006002820490506001821680610bc457607f821691505b602082108103610bd757610bd6610b7d565b5b50919050565b60008190508160005260206000209050919050565b60006020601f8301049050919050565b600082821b905092915050565b600060088302610c3f7fffffffffffffffffffffffffffffffffffffffffffffffffffffffffffffffff82610c02565b610c498683610c02565b95508019841693508086168417925050509392505050565b6000819050919050565b6000610c86610c81610c7c8461079b565b610c61565b61079b565b9050919050565b6000819050919050565b610ca083610c6b565b610cb4610cac82610c8d565b848454610c0f565b825550505050565b600090565b610cc9610cbc565b610cd4818484610c97565b505050565b5b81811015610cf857610ced600082610cc1565b600181019050610cda565b5050565b601f821115610d3d57610d0e81610bdd565b610d1784610bf2565b81016020851015610d26578190505b610d3a610d3285610bf2565b830182610cd9565b50505b505050565b600082821c905092915050565b6000610d6060001984600802610d42565b1980831691505092915050565b6000610d798383610d4f565b9150826002028217905092915050565b610d928261085a565b67ffffffffffffffff811115610dab57610daa6105c2565b5b610db58254610bac565b610dc0828285610cfc565b600060209050601f831160018114610df35760008415610de1578287015190505b610deb8582610d6d565b865550610e53565b601f198416610e0186610bdd565b60005b82811015610e2957848901518255600182019150602085019450602081019050610e04565b86831015610e465784890151610e42601f891682610d4f565b8355505b6001600288020188555050505b50505050505056fea2646970667358221220156a64319b94b859b169f2b3877a23fa10bc37c360a9a956e99781284b05832664736f6c63430008130033",
  "immutableReferences": {},
  "source": "// SPDX-License-Identifier: MIT\n\npragma solidity ^0.8.0;\n\ncontract UserRegistration {\n    struct User {\n        uint256 id;\n        string name;\n        string email;\n        address user_address;\n    }\n\n    mapping(address => User) public users;\n\n    event UserRegistered(address indexed userAddress, uint256 indexed userId);\n\n    uint256 public userIdCounter;\n\n    function registerUser(string memory _name, string memory _email) public {\n        require(msg.sender != address(0), \"Invalid user address\");\n        require(users[msg.sender].id == 0, \"User already registered\");\n        require(bytes(_name).length > 0, \"Name is required\");\n        require(bytes(_email).length > 0, \"Email is required\");\n        userIdCounter++;\n        users[msg.sender] = User({\n            id: userIdCounter,\n            name: _name,\n            email: _email,\n            user_address: msg.sender\n        });\n        emit UserRegistered(msg.sender, userIdCounter);\n    }\n\n    function getUserAddress() public view returns (address) {\n        return msg.sender;\n    }\n\n    function isRegistered() public view returns (bool) {\n        return users[msg.sender].id != 0;\n    }\n}\n",
  "sourcePath": "/Users/Earn/Desktop/blockchain/web/dapp/contracts/UserRegistration.sol",
  "compiler": {
    "name": "solc",
    "version": "0.8.19+commit.7dd6d404.Emscripten.clang"
  },
  "schemaVersion": "3.4.13",
  "updatedAt": "2023-05-22T16:13:46.998Z",
  "networkType": "ethereum",
  "devdoc": {
    "kind": "dev",
    "methods": {},
    "version": 1
  },
  "userdoc": {
    "kind": "user",
    "methods": {},
    "version": 1
  }
}