{
    "contractName": "RentalAgreement",
    "abi": [
        {
            "inputs": [],
            "stateMutability": "nonpayable",
            "type": "constructor"
        },
        {
            "inputs": [
                {
                    "internalType": "string",
                    "name": "dormName",
                    "type": "string"
                },
                {
                    "internalType": "uint256",
                    "name": "price",
                    "type": "uint256"
                },
                {
                    "internalType": "uint256",
                    "name": "deposit",
                    "type": "uint256"
                }
            ],
            "name": "addRoom",
            "outputs": [],
            "stateMutability": "nonpayable",
            "type": "function"
        },
        {
            "inputs": [],
            "name": "autopay",
            "outputs": [],
            "stateMutability": "nonpayable",
            "type": "function"
        },
        {
            "inputs": [],
            "name": "depositRent",
            "outputs": [],
            "stateMutability": "payable",
            "type": "function"
        },
        {
            "inputs": [],
            "name": "getAllDormNames",
            "outputs": [
                {
                    "internalType": "string[]",
                    "name": "",
                    "type": "string[]"
                }
            ],
            "stateMutability": "view",
            "type": "function"
        },
        {
            "inputs": [
                {
                    "internalType": "string",
                    "name": "dormName",
                    "type": "string"
                }
            ],
            "name": "getAvailableRooms",
            "outputs": [
                {
                    "internalType": "uint256[]",
                    "name": "",
                    "type": "uint256[]"
                }
            ],
            "stateMutability": "view",
            "type": "function"
        },
        {
            "inputs": [],
            "name": "getBalanceLandlord",
            "outputs": [
                {
                    "internalType": "uint256",
                    "name": "",
                    "type": "uint256"
                }
            ],
            "stateMutability": "view",
            "type": "function"
        },
        {
            "inputs": [],
            "name": "getBalanceRenter",
            "outputs": [
                {
                    "internalType": "uint256",
                    "name": "",
                    "type": "uint256"
                }
            ],
            "stateMutability": "view",
            "type": "function"
        },
        {
            "inputs": [],
            "name": "getPendingTermination",
            "outputs": [
                {
                    "internalType": "address[]",
                    "name": "",
                    "type": "address[]"
                }
            ],
            "stateMutability": "view",
            "type": "function"
        },
        {
            "inputs": [
                {
                    "internalType": "string",
                    "name": "dormName",
                    "type": "string"
                },
                {
                    "internalType": "uint256",
                    "name": "roomId",
                    "type": "uint256"
                }
            ],
            "name": "getRoomPrice",
            "outputs": [
                {
                    "internalType": "uint256",
                    "name": "",
                    "type": "uint256"
                },
                {
                    "internalType": "uint256",
                    "name": "",
                    "type": "uint256"
                }
            ],
            "stateMutability": "view",
            "type": "function"
        },
        {
            "inputs": [],
            "name": "lastBlockNumber",
            "outputs": [
                {
                    "internalType": "uint256",
                    "name": "",
                    "type": "uint256"
                }
            ],
            "stateMutability": "view",
            "type": "function"
        },
        {
            "inputs": [
                {
                    "internalType": "string",
                    "name": "name",
                    "type": "string"
                }
            ],
            "name": "registerLandlord",
            "outputs": [],
            "stateMutability": "nonpayable",
            "type": "function"
        },
        {
            "inputs": [
                {
                    "internalType": "string",
                    "name": "dormName",
                    "type": "string"
                },
                {
                    "internalType": "uint256",
                    "name": "roomID",
                    "type": "uint256"
                }
            ],
            "name": "registerRenter",
            "outputs": [],
            "stateMutability": "payable",
            "type": "function"
        },
        {
            "inputs": [],
            "name": "rentDueInterval",
            "outputs": [
                {
                    "internalType": "uint256",
                    "name": "",
                    "type": "uint256"
                }
            ],
            "stateMutability": "view",
            "type": "function"
        },
        {
            "inputs": [
                {
                    "internalType": "address",
                    "name": "termiAddress",
                    "type": "address"
                }
            ],
            "name": "terminateContractLandlord",
            "outputs": [],
            "stateMutability": "payable",
            "type": "function"
        },
        {
            "inputs": [],
            "name": "terminateContractRenter",
            "outputs": [],
            "stateMutability": "nonpayable",
            "type": "function"
        },
        {
            "inputs": [
                {
                    "internalType": "uint256",
                    "name": "amount",
                    "type": "uint256"
                }
            ],
            "name": "withdrawBalance",
            "outputs": [],
            "stateMutability": "nonpayable",
            "type": "function"
        },
        {
            "inputs": [
                {
                    "internalType": "uint256",
                    "name": "amount",
                    "type": "uint256"
                }
            ],
            "name": "withdrawRent",
            "outputs": [],
            "stateMutability": "nonpayable",
            "type": "function"
        }
    ],
    "bytecode": "608060405262278d00600755600060095534801561001c57600080fd5b50611cb48061002c6000396000f3fe6080604052600436106100fe5760003560e01c8063432f603e11610095578063d07e876111610064578063d07e876114610289578063da76d5cd1461029c578063eec361f5146102bc578063f45d5eb8146102c4578063fd9110fa146102d957600080fd5b8063432f603e1461021e578063584a67d71461023457806358dfdd4c14610249578063cfc78a121461026957600080fd5b806327f12aa3116100d157806327f12aa3146101785780632cc91f41146101ad5780633473fed5146101cf5780633c023903146101fc57600080fd5b806301ccc5c11461010357806313032bfc1461012b578063148aeed6146101405780632552317c14610162575b600080fd5b34801561010f57600080fd5b506101186102ec565b6040519081526020015b60405180910390f35b34801561013757600080fd5b5061011861033f565b34801561014c57600080fd5b506101556103c8565b6040516101229190611766565b34801561016e57600080fd5b5061011860095481565b34801561018457600080fd5b50610198610193366004611883565b6104a1565b60408051928352602083019190915201610122565b3480156101b957600080fd5b506101cd6101c83660046118c8565b610533565b005b3480156101db57600080fd5b506101ef6101ea366004611916565b6107b1565b6040516101229190611953565b34801561020857600080fd5b506102116108dc565b6040516101229190611997565b34801561022a57600080fd5b5061011860075481565b34801561024057600080fd5b506101cd610a40565b34801561025557600080fd5b506101cd610264366004611916565b610c38565b34801561027557600080fd5b506101cd6102843660046119d8565b610dde565b6101cd610297366004611883565b610ec8565b3480156102a857600080fd5b506101cd6102b73660046119d8565b611242565b6101cd6112a3565b3480156102d057600080fd5b506101cd611360565b6101cd6102e73660046119f1565b611436565b3360009081526001602052604081206002015460ff166103275760405162461bcd60e51b815260040161031e90611a21565b60405180910390fd5b50336000908152600160208190526040909120015490565b3360009081526002602052604081206004015460ff166103b15760405162461bcd60e51b815260206004820152602760248201527f4f6e6c7920746865205265627465722063616e2063616c6c20746869732066756044820152663731ba34b7b71760c91b606482015260840161031e565b503360009081526002602052604090206005015490565b60606005805480602002602001604051908101604052809291908181526020016000905b8282101561049857838290600052602060002001805461040b90611a6a565b80601f016020809104026020016040519081016040528092919081815260200182805461043790611a6a565b80156104845780601f1061045957610100808354040283529160200191610484565b820191906000526020600020905b81548152906001019060200180831161046757829003601f168201915b5050505050815260200190600101906103ec565b50505050905090565b60008060006004856040516104b69190611aa4565b9081526040805160209281900383019020600087815292529020600281015490915060ff1661051d5760405162461bcd60e51b8152602060048201526013602482015272726f6f6d20646964206e6f742065786973747360681b604482015260640161031e565b8060010154816003015492509250509250929050565b3360009081526001602052604090206002015460ff166105655760405162461bcd60e51b815260040161031e90611a21565b60006003846040516105779190611aa4565b908152604051908190036020019020546001600160a01b031690503381146105e15760405162461bcd60e51b815260206004820181905260248201527f4f6e6c7920746865206c616e646c6f72642063616e2061646420726f6f6d732e604482015260640161031e565b600080856040516105f29190611aa4565b908152604051908190036020018120549150600090600490610615908890611aa4565b9081526040805160209281900383019020600085815292529020600281015490915060ff166106bd576000851161068e5760405162461bcd60e51b815260206004820181905260248201527f5072696365206d7573742062652067726561746572207468616e207a65726f2e604482015260640161031e565b600281018054600160ff1991821681179092558183018790556003830186905560048301805490911690911790555b6000866040516106cd9190611aa4565b90815260405160209181900382018120600190810180548083018255600091825293812085546005909502019384558482015491840191909155600280850154908401805460ff1990811660ff938416151517909155600380870154908601556004808701549501805490911694909116151593909317909255610752908890611aa4565b908152604051908190036020019020600201805490600061077283611ad6565b91905055506000866040516107879190611aa4565b90815260405190819003602001902080549060006107a483611ad6565b9190505550505050505050565b6060600080836040516107c49190611aa4565b90815260200160405180910390206002015467ffffffffffffffff8111156107ee576107ee6117e0565b604051908082528060200260200182016040528015610817578160200160208202803683370190505b5090506000805b60008560405161082e9190611aa4565b9081526020016040518091039020600201548110156108d3576000856040516108579190611aa4565b9081526020016040518091039020600101818154811061087957610879611aef565b600091825260209091206004600590920201015460ff16156108c157808383815181106108a8576108a8611aef565b6020908102919091010152816108bd81611ad6565b9250505b806108cb81611ad6565b91505061081e565b50815292915050565b3360009081526001602052604090206002015460609060ff166109115760405162461bcd60e51b815260040161031e90611a21565b600854339060009067ffffffffffffffff811115610931576109316117e0565b60405190808252806020026020018201604052801561095a578160200160208202803683370190505b5090506000805b600854811015610a3757836001600160a01b0316600260006008848154811061098c5761098c611aef565b60009182526020808320909101546001600160a01b0390811684529083019390935260409091019020541603610a2557600881815481106109cf576109cf611aef565b9060005260206000200160009054906101000a90046001600160a01b03168383815181106109ff576109ff611aef565b6001600160a01b039092166020928302919091019091015281610a2181611ad6565b9250505b80610a2f81611ad6565b915050610961565b50815291505090565b60005b600654811015610c3557600060068281548110610a6257610a62611aef565b60009182526020808320909101546001600160a01b0316808352600290915260409091206004015490915060ff16610ad35760405162461bcd60e51b815260206004820152601460248201527352656e746572206973206e6f742061637469766560601b604482015260640161031e565b6007546001600160a01b038216600090815260026020526040902060030154610afc9042611b05565b10610c22576001600160a01b0381166000908152600260208190526040909120908101546005909101548111610bc3576001600160a01b0380831660009081526002602090815260408083205490931682526001908190529181209091018054839290610b6a908490611b18565b90915550506001600160a01b03821660009081526002602052604081206005018054839290610b9a908490611b05565b90915550506001600160a01b038216600090815260026020526040902042600390910155610c20565b6001600160a01b03821660009081526002602052604090206006015460ff161515600103610bf957610bf48261156d565b610c20565b6001600160a01b0382166000908152600260205260409020600601805460ff191660011790555b505b5080610c2d81611ad6565b915050610a43565b50565b6000815111610c815760405162461bcd60e51b81526020600482015260156024820152742730b6b29031b0b73737ba1031329032b6b83a3c9760591b604482015260640161031e565b60006001600160a01b0316600382604051610c9c9190611aa4565b908152604051908190036020019020546001600160a01b031614610d025760405162461bcd60e51b815260206004820152601e60248201527f446f726d69746f7279206e616d6520616c7265616479206578697374732e0000604482015260640161031e565b6040805160608101825282815260006020808301829052600183850181905233808452915292902081518190610d389082611b79565b50602082015160018201556040918201516002909101805460ff1916911515919091179055518190600390610d6e908590611aa4565b90815260405190819003602001902080546001600160a01b03929092166001600160a01b0319909216919091179055600580546001810182556000919091527f036b6384b5eca791c62761152d0c79bb0604c104a5fb6f4eb0703f3154bb3db001610dd98382611b79565b505050565b3360009081526001602052604090206002015460ff16610e105760405162461bcd60e51b815260040161031e90611a21565b3360009081526001602081905260409091200154811115610e6b5760405162461bcd60e51b815260206004820152601560248201527424b739bab33334b1b4b2b73a103130b630b731b29760591b604482015260640161031e565b3360008181526002602052604081206005018054849290610e8d908490611b05565b90915550506040516001600160a01b0382169083156108fc029084906000818181858888f19350505050158015610dd9573d6000803e3d6000fd5b600080610ed584846104a1565b91509150803414610f215760405162461bcd60e51b81526020600482015260166024820152752232b837b9b4ba1034b9903737ba1032b737bab3b41760511b604482015260640161031e565b610ffc6005805480602002602001604051908101604052809291908181526020016000905b82821015610ff2578382906000526020600020018054610f6590611a6a565b80601f0160208091040260200160405190810160405280929190818152602001828054610f9190611a6a565b8015610fde5780601f10610fb357610100808354040283529160200191610fde565b820191906000526020600020905b815481529060010190602001808311610fc157829003601f168201915b505050505081526020019060010190610f46565b50505050856115d6565b6110485760405162461bcd60e51b815260206004820152601760248201527f496e76616c696420646f726d69746f7279206e616d652e000000000000000000604482015260640161031e565b600060038560405161105a9190611aa4565b908152604051908190036020018120546001600160a01b031691508290600490611085908890611aa4565b908152602001604051809103902060008681526020019081526020016000206003015410156110ef5760405162461bcd60e51b81526020600482015260166024820152752232b837b9b4ba1034b9903737ba1032b737bab3b41760511b604482015260640161031e565b6040805161010080820183526001600160a01b03848116835260208084018781528486018981524260608701908152600160808801818152600060a08a0181815260c08b0182815260e08c018381523384526002998a90528d84209c518d546001600160a01b0319169b169a909a178c559651938b01939093559351958901959095559051600388015592516004808801805460ff19169215159290921790915592516005870155905160069095018054935161ffff1990941695151561ff001916959095179215159093029190911790925591516111cf908890611aa4565b908152604080516020928190038301902060009788529091528520600401805460ff19169115159190911790555050600680546001810182559252507ff652222313e28459528d920b65115c16c04f3efc82aaedc97be59f3f377c0d3f018054336001600160a01b031990911617905550565b336000908152600260205260409020600501548110610e6b5760405162461bcd60e51b815260206004820152601b60248201527f596f7520646f6e2774206861766520656e6f756768206d6f6e65790000000000604482015260640161031e565b3360009081526002602052604090206004015460ff166112d55760405162461bcd60e51b815260040161031e90611c39565b600034116113375760405162461bcd60e51b815260206004820152602960248201527f4465706f73697420616d6f756e74206d757374206265206772656174657220746044820152683430b7103d32b9379760b91b606482015260840161031e565b3360009081526002602052604081206005018054349290611359908490611b18565b9091555050565b33600090815260026020526040902060060154610100900460ff16156113d65760405162461bcd60e51b815260206004820152602560248201527f506c65617365207761697420666f72206c616e646c6f726420636f6e6669726d60448201526430ba34b7b760d91b606482015260840161031e565b60088054600181019091557ff3f7a9fe364faab93b216da50a3214154f22a0a2b415b23a84c8169e8b636ee30180546001600160a01b031916339081179091556000908152600260205260409020600601805461ff001916610100179055565b3360009081526001602052604090206002015460ff166114685760405162461bcd60e51b815260040161031e90611a21565b6114706108dc565b516000036114c05760405162461bcd60e51b815260206004820152601c60248201527f5468657265206973206e6f206f6e6520746f207465726d696e61746500000000604482015260640161031e565b6001600160a01b03811660009081526002602052604090206004015460ff166114fb5760405162461bcd60e51b815260040161031e90611c39565b6001600160a01b03811660008181526002602052604080822060010154905181156108fc0292818181858888f1935050505015801561153e573d6000803e3d6000fd5b506001600160a01b0381166000908152600260205260409020600401805460ff19169055610c35600682611639565b6001600160a01b03811660009081526002602052604090206004015460ff166115a85760405162461bcd60e51b815260040161031e90611c39565b6001600160a01b0381166000908152600260205260409020600401805460ff19169055610c35600682611639565b6000805b835181101561162d5782805190602001208482815181106115fd576115fd611aef565b6020026020010151805190602001200361161b576001915050611633565b8061162581611ad6565b9150506115da565b50600090505b92915050565b60005b8254811015610dd957816001600160a01b031683828154811061166157611661611aef565b6000918252602090912001546001600160a01b031603611730578254839061168b90600190611b05565b8154811061169b5761169b611aef565b9060005260206000200160009054906101000a90046001600160a01b03168382815481106116cb576116cb611aef565b9060005260206000200160006101000a8154816001600160a01b0302191690836001600160a01b031602179055508280548061170957611709611c68565b600082815260209020810160001990810180546001600160a01b0319169055019055505050565b8061173a81611ad6565b91505061163c565b60005b8381101561175d578181015183820152602001611745565b50506000910152565b6000602080830181845280855180835260408601915060408160051b870101925083870160005b828110156117d357878503603f19018452815180518087526117b4818989018a8501611742565b601f01601f19169590950186019450928501929085019060010161178d565b5092979650505050505050565b634e487b7160e01b600052604160045260246000fd5b600082601f83011261180757600080fd5b813567ffffffffffffffff80821115611822576118226117e0565b604051601f8301601f19908116603f0116810190828211818310171561184a5761184a6117e0565b8160405283815286602085880101111561186357600080fd5b836020870160208301376000602085830101528094505050505092915050565b6000806040838503121561189657600080fd5b823567ffffffffffffffff8111156118ad57600080fd5b6118b9858286016117f6565b95602094909401359450505050565b6000806000606084860312156118dd57600080fd5b833567ffffffffffffffff8111156118f457600080fd5b611900868287016117f6565b9660208601359650604090950135949350505050565b60006020828403121561192857600080fd5b813567ffffffffffffffff81111561193f57600080fd5b61194b848285016117f6565b949350505050565b6020808252825182820181905260009190848201906040850190845b8181101561198b5783518352928401929184019160010161196f565b50909695505050505050565b6020808252825182820181905260009190848201906040850190845b8181101561198b5783516001600160a01b0316835292840192918401916001016119b3565b6000602082840312156119ea57600080fd5b5035919050565b600060208284031215611a0357600080fd5b81356001600160a01b0381168114611a1a57600080fd5b9392505050565b60208082526029908201527f4f6e6c7920746865206c616e646c6f72642063616e2063616c6c207468697320604082015268333ab731ba34b7b71760b91b606082015260800190565b600181811c90821680611a7e57607f821691505b602082108103611a9e57634e487b7160e01b600052602260045260246000fd5b50919050565b60008251611ab6818460208701611742565b9190910192915050565b634e487b7160e01b600052601160045260246000fd5b600060018201611ae857611ae8611ac0565b5060010190565b634e487b7160e01b600052603260045260246000fd5b8181038181111561163357611633611ac0565b8082018082111561163357611633611ac0565b601f821115610dd957600081815260208120601f850160051c81016020861015611b525750805b601f850160051c820191505b81811015611b7157828155600101611b5e565b505050505050565b815167ffffffffffffffff811115611b9357611b936117e0565b611ba781611ba18454611a6a565b84611b2b565b602080601f831160018114611bdc5760008415611bc45750858301515b600019600386901b1c1916600185901b178555611b71565b600085815260208120601f198616915b82811015611c0b57888601518255948401946001909101908401611bec565b5085821015611c295787850151600019600388901b60f8161c191681555b5050505050600190811b01905550565b6020808252601590820152742932b73a32b91034b9903737ba1030b1ba34bb329760591b604082015260600190565b634e487b7160e01b600052603160045260246000fdfea26469706673582212202c483aeb46123afb3a345021e50212af7f330ef0365caa1034225f5ab2ed40d064736f6c63430008130033",
    "sourcePath": "d:/Download/rentiz-real-estate-free-website-template/smart_contract/RentalAgreement.sol",
    "compiler": {
        "name": "solc",
        "version": "0.8.19+commit.7dd6d404"
    },
    "functionHashes": {
        "addRoom(string,uint256,uint256)": "2cc91f41",
        "autopay()": "584a67d7",
        "depositRent()": "eec361f5",
        "getAllDormNames()": "148aeed6",
        "getAvailableRooms(string)": "3473fed5",
        "getBalanceLandlord()": "01ccc5c1",
        "getBalanceRenter()": "13032bfc",
        "getPendingTermination()": "3c023903",
        "getRoomPrice(string,uint256)": "27f12aa3",
        "lastBlockNumber()": "2552317c",
        "registerLandlord(string)": "58dfdd4c",
        "registerRenter(string,uint256)": "d07e8761",
        "rentDueInterval()": "432f603e",
        "terminateContractLandlord(address)": "fd9110fa",
        "terminateContractRenter()": "f45d5eb8",
        "withdrawBalance(uint256)": "da76d5cd",
        "withdrawRent(uint256)": "cfc78a12"
    },
    "gasEstimates": {
        "creation": {
            "codeDepositCost": "1469600",
            "executionCost": "28646",
            "totalCost": "1498246"
        },
        "external": {
            "addRoom(string,uint256,uint256)": "infinite",
            "autopay()": "infinite",
            "depositRent()": "26781",
            "getAllDormNames()": "infinite",
            "getAvailableRooms(string)": "infinite",
            "getBalanceLandlord()": "4599",
            "getBalanceRenter()": "4615",
            "getPendingTermination()": "infinite",
            "getRoomPrice(string,uint256)": "infinite",
            "lastBlockNumber()": "2374",
            "registerLandlord(string)": "infinite",
            "registerRenter(string,uint256)": "infinite",
            "rentDueInterval()": "2307",
            "terminateContractLandlord(address)": "infinite",
            "terminateContractRenter()": "75207",
            "withdrawBalance(uint256)": "infinite",
            "withdrawRent(uint256)": "infinite"
        },
        "internal": {
            "checkifinList(string memory[] memory,string memory)": "infinite",
            "removeElement(address[] storage pointer,address)": "infinite",
            "terminateContractAuto(address)": "infinite"
        }
    }
}